:020000040003F7
:10C00000083C002045C403005FC4030061C4030072
:10C010000000000000000000000000000000000020
:10C02000000000000000000000000000D5C0030078
:10C03000000000000000000065C4030067C40300A6
:10C0400069C4030069C4030069C4030069C4030030
:10C0500069C403000000000069C4030069C4030050
:10C0600069C4030069C4030069C4030069C4030010
:10C0700069C4030069C4030069C4030069C4030000
:10C0800069C40300D9D7030069C4030069C403006D
:10C09000F5D7030069C40300F1F0030069C403008D
:10C0A00069C4030069C40300000000000000000030
:10C0B0000000000000000000000000000000000080
:10C0C0000348854603F08EF80048004795C20300F8
:10C0D000083C00200648704502D1EFF3098101E0D9
:10C0E000EFF30881886902380078024A104700009F
:10C0F000FDFFFFFF6DC10300401E00BF00BF00BF7A
:10C1000000BF00BF00BF00BF00BF00BF00BF00BF37
:10C1100000BFF1D170470000401E00BF00BF00BF4C
:10C1200000BF00BF00BF00BF00BF00BF00BF00BF17
:10C1300000BFF1D170470000056885F308884068AA
:10C14000FF2464B2EFF30585002D01D1A646004718
:10C150002546064621273FBAF0B4002400250026D4
:10C160000027F0B4F92040B20047000010B50C469B
:10C17000002802D00120086010BD2168002911D0DC
:10C180001E48421A814212D03C2A0DD201223C3074
:10C190003C310B7803701346521C401E491E3C2B49
:10C1A000F7D904E00E200BE03C2202F0DFFF002272
:10C1B0003C21124801F0D0FE1049891E0880002061
:10C1C000206010BD70B505000BD000223C210B484B
:10C1D00001F0C2FE094CA41E2188884203D00B2026
:10C1E00070BD0E2070BD3C220449284602F0BEFFFF
:10C1F0002088401C2080002070BD0000827F00202D
:10C200000A4610B50146814801F020F910BD10B56D
:10C2100001F06EF810BD10B57D4C86B01ECC0394B5
:10C220006C460EC4002807D0684618DF002803D0EB
:10C230000022114601F00AF90F20800313DF0028C5
:10C2400003D00022114601F001F9724B48227249D5
:10C250000D2002F029FF002803D00022114601F032
:10C26000F5F800200490059001206946087404A8A0
:10C2700060DF002803D00022114601F0E7F867488C
:10C2800002F02EFF002803D00022114601F0DEF854
:10C2900006B010BD1CB56248C1690026B1295DD049
:10C2A0000024152518270122009600231146284650
:10C2B000019600F08CF86D1CBD42F4D90F20594D49
:10C2C0004005A86058480F2140698903884204D07E
:10C2D00000221146104601F0B9F80120000700695C
:10C2E00001218902884204D000221146104601F043
:10C2F000ADF84E4B4E4A0521002001F07FFA002890
:10C3000003D00022114601F0A1F8032300221420DB
:10C3100011460096019300F05AF801F065FD01F016
:10C32000A9FD0127FE0500281BD0EE6001F0B1FD3C
:10C33000002803D00022114601F088F820467840FA
:10C34000FFF769FF00F053F801F0C9FD002803D0A2
:10C350000022114601F07AF8AE6008E00124C661BF
:10C360009FE720467840FFF756FF00F040F8286925
:10C37000000DC007C00F04D0002020432D4C07D172
:10C3800001E00120F9E7A06801F085FC002809D14F
:10C39000EE6001F03BFD002803D00022114601F0C1
:10C3A00055F8AE60A06801F076FC002806D001F0D8
:10C3B00061FD002802D1A06801F034FDBFF34F8F6A
:10C3C0001E491D48C860BFF34F8F00BFFDE730B561
:10C3D00052000A439900039C0A432102049D0A4328
:10C3E00029040A43164980004018026030BD0A4AF9
:10C3F00010B548321421082001F036F8002803D087
:10C400000022114601F022F810BD0000EFBEADDEA3
:10C4100040F203002FF103009C2E00200FC2030006
:10C420000005004000050050001000103BDC030038
:10C43000D42C0020003000000400FA0500ED00E0DC
:10C44000000700500321094802680A4302600848B7
:10C4500002680A4302600748804707480047FEE732
:10C46000FEE7FEE7FEE7FEE7FEE7000024050040EA
:10C47000540500407DC40300C1C0030010B500F0A6
:10C4800037F8002805D02C492A484860C8132B49A2
:10C4900088612B48018CCAB20121012A0DD1828CFE
:10C4A00012070AD1028D1206120F042A05D1808DBF
:10C4B0000006000F01D123488160234A9068401C88
:10C4C00015D1224B596022480468002CFCD0FF246F
:10C4D000E4439460596001680029FCD0BFF34F8F9A
:10C4E0001D491C48C860BFF34F8F00BFFDE710BD5A
:10C4F0001348018CC9B2012917D1818C090714D1C5
:10C50000018D09060A0F03D1828D1206120F0ED07B
:10C51000090F012903D1828D1206120F07D00329BA
:10C5200003D1808D0006000F01D00020704701204C
:10C5300070470000DFFF07C000050040006C0040AE
:10C54000C00F00F0000600400010001000E50140A0
:10C5500000E401400400FA0500ED00E0FFB583B0FF
:10C56000074600200C9C8646268805463AE07868F7
:10C57000A90042181188684681805188C180002234
:10C58000694601A865DF002839D168460178059819
:10C59000814226D17046002801D0002200E002220C
:10C5A0002088891842180D998A4227D87146002997
:10C5B0000AD1401C80B22080069A04991154208828
:10C5C000401C208001208646218806980A1869466A
:10C5D00001A865DF002812D1694620880978401833
:10C5E00020806D1C3888A842C1DC704600280AD023
:10C5F0002088801B401E80B2FF2802D90C2007B083
:10C60000F0BD069988550020F9E7FFB583B01646BE
:10C610000C9D0D9C1F460222009501940398FFF784
:10C620009DFF0028EBD13B46102231460095019436
:10C630000398FFF793FFE2E7F7B584B0002516886B
:10C6400007461580406B1446002813D003780598E0
:10C65000032E51D30221017021881122491C89B275
:10C66000218042542188491C89B22180435420886A
:10C67000401C2080386B00281DD005462088059975
:10C6800002461232B24237D811220A5420881022B0
:10C69000401C80B220800A542088401C20800F203B
:10C6A0002A5C2388401ECA54228840B2521C228031
:10C6B0000028F5DA0025384620300290807B0028DB
:10C6C00006D033462246059900F0F9F8050096D1C8
:10C6D0000298407B002806D032462146059800F09B
:10C6E00018F905008BD1B878002822D00598864625
:10C6F0002088001DB04201D90C2080E7684679DF10
:10C700000028FAD12188032072465054208819212C
:10C71000401C80B22080115420887146401C80B299
:10C72000208041186846008800F0C4F8218840182D
:10C730002080F878002817D0218803230A46FB566A
:10C74000C91C0598B142D7D8022181542188012201
:10C75000491C89B2218042542188491C89B2218018
:10C7600043542088401C20807868002817D02188F6
:10C770000023C3560A46C91C0598B142BCD8022101
:10C78000815421880A22491C89B22180425421887F
:10C79000491C89B2218043542088401C208038895C
:10C7A00000280AD00094384601960622022108305B
:10C7B000059BFFF72AFF05009FD1388A00280AD081
:10C7C000009438460196072203211030059BFFF79D
:10C7D0001CFF050091D1388B00280AD00094384600
:10C7E0000196152214211830059BFFF70EFF050056
:10C7F00087D1386A002806D033462246059900F0D2
:10C8000006F90500D8D1786A002806D033462246BA
:10C81000059900F03DF90500CED10298007B002873
:10C8200007D0334622463846059900F065F90500E1
:10C83000C2D13878002807D03346224638460599B9
:10C8400000F096F80500B7D12846D8E6F0B50C46BA
:10C8500093B01F216A461180072600279180002887
:10C8600009D0C17849070DD502A9FFF7E5FE0028D8
:10C8700009D102AD01E000251780002C0ED0E07830
:10C88000002802D0304613B0F0BD01AA0AA9204604
:10C89000FFF7D2FE0028F6D10AAA02E0684600227D
:10C8A000878068468088C3B268460088C1B228463F
:10C8B00072DFE8E70870000A48700220704730B560
:10C8C0001588EC1C9C4201D90C2030BD02244C552B
:10C8D00013881C255B1C9BB21380CD5413885B1CF2
:10C8E0009BB21380012807D0022807D0032807D065
:10C8F000042807D0072030BD002004E0012002E01A
:10C90000CC5401E00320C8541088401C1080002043
:10C9100030BD7CB5054608880C460930904201D9E7
:10C920000C207CBD684671DF0028FAD121880820E0
:10C93000685420881B21401C80B220802954208804
:10C9400000A9401C80B2208040190622013102F06B
:10C950000DFC20886946801D80B22080097800295E
:10C9600000D0012129542088401C208000207CBD5B
:10C97000F8B50F46017814460546012902D16878BA
:10C98000002806D02088821C9A422DD8012902D086
:10C9900006E00720F8BD69784118891C994223D820
:10C9A000181A801E86B2684606802188B81C0818AE
:10C9B00069467DDF0028EDD12878022805D1694637
:10C9C0000988B14201D809210AE00821012805D1CE
:10C9D0006878B04202D86A46108001E06846068056
:10C9E00068460088FE2801D90C20F8BD2288401C2A
:10C9F000B8542088401C80B2208039542088694671
:10CA0000401C20800988401820800020F8BDF8B51F
:10CA10000646108814468446801D0D46984201D96A
:10CA20000C20F8BD32880720062AFAD31927FF0107
:10CA3000554BBA4201D99A42F3D171880629F0D3F5
:10CA4000B94201D99942ECD19A4203D0994201D01E
:10CA50008A42E6D805216046295420881221401CCC
:10CA600080B2208029542088401C80B22080411947
:10CA70003088FFF71FFF2188401880B220804119BD
:10CA80007088FFF717FF2188401820800020F8BD2C
:10CA900070B5144682880E4605462088111D41183F
:10CAA000921C994201D8FE2A01D90C2070BD521C5B
:10CAB00032542088FF21401C80B2208031542088CD
:10CAC000401C80B2208081192888FFF7F3FE21885E
:10CAD000401880B22080AA88002A09D0A9680029BD
:10CAE00008D0801902F042FB2088A98840182080D5
:10CAF000002070BD072070BDFFB50746806A81B079
:10CB0000144600283DD0002538462030009033E000
:10CB10000C20B96A68430E18B088801CFE2802D920
:10CB20000C2005B0F0BD22880299401C8854208852
:10CB30001622401C80B2208002990A542088401C92
:10CB400080B22080029941183088FFF7B3FE218817
:10CB5000401880B22080B288002A0AD0B16800292B
:10CB60000FD0029BC01802F001FB2088B18840184A
:10CB700020806D1C0098EDB2007BA842C8D8002030
:10CB8000CFE70720CDE70000FFFF000038B5674979
:10CB9000674A488890420FD04A78664C521CD2B2FD
:10CBA0004A70237B934208D3091D75DF002803D008
:10CBB000A169002900D0884738BD00254D70217C2F
:10CBC000002907D03B2176DF002803D0A169002986
:10CBD00000D0884761690029EED068460570884713
:10CBE00038BD70B5054601461C22524802F0BEFA17
:10CBF0004E4C002626702968002906D00822201DE8
:10CC000002F0B4FA201D7ADF02E04848001D7BDF05
:10CC1000002807D1401E60806670474A00214748BF
:10CC200000F02CFE70BD10B54448006800F098FE7E
:10CC300010BDF8B53D480C3000F06BF800263B4DB8
:10CC40003C4C002807D0616900291CD001206A46AD
:10CC50001070684616E02878002805D06169002920
:10CC600011D0684606700DE0687800280DD0A168E4
:10CC700032480022006800F03AFE002803D0A16983
:10CC8000002900D088472E70F8BD6168F0E7F8B53C
:10CC9000284C02880027254DE689102A17D02749FD
:10CCA000112A21D0122A2DD0502A0FD1C288801DDE
:10CCB000B2420BD1028B022A08D1C27E837E1002BF
:10CCC0001843C007C00F13D0FFF7B3FFF8BD81882A
:10CCD000698001461548082216310C3002F046FAE8
:10CCE0006F70002EF0D0F8BD0020C04368806F70D8
:10CCF000086800F035FE0028F5D0A1690029F2D0BF
:10CD00008847F8BD811D094808220C3002F02EFA30
:10CD1000DAE741880548001D0288914204D3408823
:10CD2000814201D80120704700207047042C002068
:10CD3000FFFF0000543000208DCB030050F20300B1
:10CD400030B585B0002822D00388FE4CA34220D005
:10CD5000FD4B1B78002B1CD0FB4B10255B1C1D7062
:10CD60005970002401259A70032269460A820094B2
:10CD7000019402940394028A0A808D708C8004A925
:10CD80000291039300886946A6DF05B030BD0E20EE
:10CD9000FBE70820F9E7F0B58BB0044602276846A8
:10CDA0000773002609968784C68408A80A900D4652
:10CDB000A18A208809AAA5DF002804D0E16A0029F9
:10CDC0001AD0884718E06846008CC007C00F13D0FF
:10CDD00068460682208803A9A8DF002813D1A97E0F
:10CDE00028461B3001220B0002F00EFA09460F1CE8
:10CDF0002227292C442E4600FF20FE306946088257
:10CE0000208803A9A8DF0BB0F0BD6B461E700BE0B5
:10CE100006221EE069460A72019027E020469047EC
:10CE20000020F0E76B461A702B8B022BF2D2EFE753
:10CE3000684607706946A26AF0E7032000E0042014
:10CE4000694612E00520FBE7298B032905D203225E
:10CE500008212046FFF774FFD5E7417802780802E1
:10CE600010436946888003D006200870A26AD5E77F
:10CE70000720FAE70920E3E70322EAE730B585B0A7
:10CE80000D46040038D0002D36D06868002833D015
:10CE90000020C043AD4B20800FCB049301AB07C3F0
:10CEA000AB486946088001A8811E63DF002822D1B3
:10CEB000221D69460120A0DF00281CD16846807829
:10CEC000A071204600F0CEF8002814D1204600F0D2
:10CED00059F900280FD12946204600F004F900280E
:10CEE00009D16868A062A868002800D0E06296496D
:10CEF00001200870002048E70E2046E73EB50028D4
:10CF000028D0002926D0826A002A23D00A88102A35
:10CF100021D0112A30D0502A1FD0512A1AD10A46C6
:10CF20000446891D0878022814D14888238A98422B
:10CF300010D1907A04280DD006280BD0052809D0EE
:10CF40002046891CFFF727FF002803D0E16A00294B
:10CF500000D088473EBD898810E0CB880289934283
:10CF6000F8D108226B461A708A7F1A72203101911B
:10CF7000826A694690473EBD0021C94301803EBD9B
:10CF8000F0B585B00A4605002DD028886D49884245
:10CF90002BD06D480078002827D06B4C1020641CE3
:10CFA0002070072060700127A77003216846018266
:10CFB0000026E11C104600F04CF801466846008A45
:10CFC0000918684601820096019602960396298AFE
:10CFD00001808770868004A803940290288869469F
:10CFE000A6DF05B0F0BD0E20FBE70820F9E7F0B59D
:10CFF00085B00A46050028D028885249884226D0A4
:10D0000051480078002822D04F4C1120641C207019
:10D010000127684607820026611C104600F019F8B7
:10D0200001466846008A0918684601820096019602
:10D0300002960396298A01808770868004A803944B
:10D04000029028886946A6DFCBE70E20C9E70820B2
:10D05000C7E70870020A4A70020C8A70000EC87096
:10D060000420704730B58FB005461C21684602F099
:10D0700096F8694608780421084369460870002438
:10D0800001940394049405940694A87908A98870DF
:10D090002F486946801C0884601C00070794000F15
:10D0A0000C77103048778A7FF9200240F720921CD5
:10D0B0000240EF200240012002438A77142109A890
:10D0C00002F06DF808A8099007A80A9069468C85B7
:10D0D0001420CC8508860D942B46A888083309AA0D
:10D0E000A2DF0FB030BDF0B58FB00F4605461C2152
:10D0F000684602F054F86846017802263143017010
:10D10000002401940394049405940694A97908A832
:10D1100081700F496846091D0184601C0107090FD1
:10D120006846103107940177002001466846417730
:10D13000817FF9200140F720891C0140EF20014048
:10D14000012007E0FFFF0000182C002054F203002C
:10D1500030150000014368468177142109A802F0C8
:10D160001EF808A8099007A80A9068468685C48515
:10D1700006860D972B46A888203309AA6946A2DFA8
:10D180000FB0F0BD30B58FB005461C21684602F0E7
:10D1900006F86946087808210843102210436946BA
:10D1A0000870002401940394049405940694A879CB
:10D1B00008A98870144869460884601C0007079411
:10D1C000000F0C7710304877887FF9210840F7214D
:10D1D000801C0840104301210843694688771421C8
:10D1E00009A801F0DCFF08A8099007A80A90694681
:10D1F0008C851720CC8508860D942B46A888103383
:10D2000009AAA2DF6DE700003115000031B5054C19
:10D2100004E0401E00902046FEF76EFF00980028B4
:10D22000F7D138BDE703000018225043854A00219A
:10D230008018017181604161022281610261C160D7
:10D24000704770B57F4C182221780F2051430A197E
:10D250007D4916795369121D4D68012E0FD0032E9A
:10D260000CD101200007006981B2184601F068FF67
:10D27000401928DF002801D10121A17070BDA8024A
:10D28000556851692D1A091892681818101801224A
:10D290009202954202D2AA0829DFEBE7FF2201326F
:10D2A00029DFE7E7F8B5674C069E65780A2D1DD0A3
:10D2B00027787D19EDB20A2D01D30A3DEDB218276A
:10D2C0007D432D192871AA6103C9EE60AB606961C5
:10D2D0002861A1780020002904D1FFF7B2FF1128AE
:10D2E00000D100206178491C6170F8BD0420F8BDB0
:10D2F000F8B5544C0022A17801293ED10023A37037
:10D300000646214608781827054678434118022E1C
:10D3100003D0032E31D10D202CE04B484668761CFB
:10D3200046608968B6028E4214D343606078401E1E
:10D330006070681CC0B220700A2801D30A382070BF
:10D340001820684301191046091D00F06BF82846A3
:10D35000FFF76AFF607800280FD0A07800280CD172
:10D36000FFF76FFF002808D0112806D02178182277
:10D3700051430919091D00F055F8F8BD70B5002496
:10D38000314E3048746004704470847025462846DD
:10D39000FFF74AFF6D1C0A2DF9D32B49346000209A
:10D3A000083174608200401C8C500228FAD300209F
:10D3B00070BD10B5244B1A68022A09D00A601C46B9
:10D3C0009100083400686050521C00201A6010BDA3
:10D3D000042010BDF8B507461D4616460C46084603
:10D3E00000F01AF800280CD0601900F015F8002899
:10D3F00007D033462246394601200095FFF752FFF9
:10D40000F8BD1020F8BD08B50B46002201460320E8
:10D410000092FFF747FF08BD800701D0002070474A
:10D420000120704738B50C46E268074B920008337C
:10D430009D58097862680092024620460C30636964
:10D44000A84738BD70300020202C0020BFF34F8F3C
:10D4500004490348C860BFF34F8F00BFFDE70000D9
:10D460000400FA0500ED00E030B5CB0008339DB2B2
:10D4700093070024002B01D0072030BD574B9A6042
:10D480005219DA605C701C7058809980002030BDA1
:10D49000F7B5524C82B060880F4681426ED80020AA
:10D4A000694608704F494E4E4868C005C00D18D0F7
:10D4B000103840B2002807DA0207120F083A920823
:10D4C00092005118C96904E08108474A8900891807
:10D4D00009688007C00EC1400806850F012D01D1E3
:10D4E0000AE00425684636DF02280CD0002803D065
:10D4F00000221146FFF7AAFF22786078A1888842AF
:10D5000003DA401C02E072B6F6E70020C0B2904297
:10D5100007D066786078884201DA401C00E000207D
:10D520006070012D0BD062B66846007837DF0228A4
:10D5300005D0002803D000221146FFF787FF2848B6
:10D54000864219D0A068F50004994151029900293A
:10D550000CD0002F0AD060883A464643E068301865
:10D5600001F004FEA0682818878002E00021281836
:10D570008180002005B0F0BD0420FBE70920F9E719
:10D580000EB504E068468188029A0098904702AA86
:10D5900001A9684600F003F80028F3D00EBD70B56D
:10D5A0000E4B05241D785E78AE4215D01D781C7890
:10D5B0009E88B44201DA641C00E000241C705C8880
:10D5C000DE686C43A41904609B68E800C418A48852
:10D5D0000C80185800241060204670BD302C0020AC
:10D5E000FFFF000000ED00E000E400E08307FF2201
:10D5F000DB0E9A408907090E994000280BDA0007D4
:10D60000000F08388308F9489B001818C369934332
:10D610000B43C36170478308F5489B001B181868CB
:10D62000904308431860704770B50124F1496004C5
:10D630000860F14940108860EF4940398860EF4D3B
:10D640006C602F20FEF768FDAC60ED4D00242F20AC
:10D650002C61FEF761FDEC7070BDF8B5E849C86853
:10D660000A690C780F7989688646944600913EE0F5
:10D670000099E20055182A7836E018235343696868
:10D68000521CC918AB78D2B2934200D100220B7859
:10D69000022B02D0032B27D123E04E68034601461C
:10D6A00003E0B14204D00B46C96900291CD0F8E759
:10D6B000002919D08B4208D1C069002805D1CF4F6D
:10D6C0000126BE600026B44601270E68C969D961EB
:10D6D000002909D00B689B190B6005E00174C06933
:10D6E00000E000210028F9D169789142C5D1214696
:10D6F000641EE4B20029BBD1C14962460A61C86018
:10D700000F71704501D00120F8BD0020F8BDF8B5BB
:10D710000446BB480026C168009107784EE0B8482F
:10D72000F90080680D1843E0002C02D02046E4691F
:10D730001FE02878182141436A68401CC0B2511884
:10D740002870AA78904200D12E700A784868012A81
:10D7500030D1027C002A2DD18A684260CA6882607A
:10D760000A69C26049698161A5490979002900D027
:10D770004660A34943680A699C46991A0902A14B6D
:10D78000090A994202D28268891807E06146511A53
:10D7900009028268090A8A4202D9511A016000E02E
:10D7A00006604660012186600174C66100F0FFF8E2
:10D7B000002CB9D1287869788842BAD138467F1EC2
:10D7C000FFB20028ABD18E48C1680098814201D0D9
:10D7D0000120F8BD0020F8BD10B58B49002008607D
:10D7E00048608860C860884940390860486000F037
:10D7F00016F910BD10B500F04FF910BDFFB5900738
:10D80000002581B014460E46002833D17C4F002CF1
:10D8100032D0FFF709FF049878610320387033464F
:10D820001821224600204B43BC601834C1008918DF
:10D830000D704D708E704C601C19401C0328F5DB78
:10D84000FD607D7001247148BD70240504600321D2
:10D850001420FFF7CBFE6748803804606C4C0198B9
:10D86000A06003211120FFF7C1FE6068386100202D
:10D8700005B0F0BD0720FBE7BD60FBE7604B9B6890
:10D88000002B07D0002A07D0002805D00068037CB1
:10D89000002B03D008207047072070474174426175
:10D8A0000020704751494868C005C00D19D0103894
:10D8B00040B2002807DA0207120F083A92089200D5
:10D8C0005118C96904E08108494A89008918096822
:10D8D0008007C00EC1400806800F012803D003282E
:10D8E00003D0022070470020704701207047FEB52A
:10D8F0000D46434917468968044600292AD0002C62
:10D9000028D0052D01D20720FEBD6069002821D056
:10D91000607C012820D00026FFF7C4FFC0003849F2
:10D92000019089684018694600F0F6F8002815D083
:10D93000012101703649446049680830E2C030492D
:10D9400001988968411868460078487000F062F8CC
:10D950000020FEBD0820FEBD2E46DDE70420FEBDF2
:10D96000F8B5274D0446A96800291CD0002C1AD010
:10D970006069002817D000262674FFF793FFC700C0
:10D98000A8686946381800F0C7F800280DD00221B1
:10D9900001704460A868391868460078487000F043
:10D9A00039F83046F8BD0820F8BD0420F8BD10B5A0
:10D9B000134BD968002906D002680C68A24204D82B
:10D9C000A21A0A60C161D86010BD0B4604E00B4684
:10D9D000C969121B002904D00C689442F7D3A41A19
:10D9E0000C600260C161D86110BD000000ED00E074
:10D9F00000E400E080E100E040130140001001403D
:10DA0000402C0020FFFF7F004011014080E200E039
:10DA10000015014001207C49000508607047F8B5F9
:10DA20007A4DEC68002C36D0794800274068296987
:10DA3000401A0602360A2068B0421AD8361AC719A8
:10DA40002246107CE469002811D0002010746B6914
:10DA5000002B09D0916950699847002807D000220F
:10DA60001146FFF7F3FC02E0516990698847002CEA
:10DA7000E1D16978A878814206D1401CC0B2A87073
:10DA8000022801D10020A87060490006800D1831DD
:10DA90000F50FFF7BFFFF8BDFEB55C4C00252769AE
:10DAA000E0680290684600F04AF80190FFF7D5FD63
:10DAB00006460198002822D000230098E16817E06C
:10DAC0000E680A46864202D9301A086012E0801BAE
:10DAD000F31800261660D668D169B446002E07D028
:10DAE000FE183602360A566066469660D5611546BF
:10DAF0000029E5D12846E160FFF709FE06E0284647
:10DB0000FFF705FE002801D1002E02D0029800F098
:10DB100033F800202071FEBD42788378521CD2B2C7
:10DB2000934200D100220378934201D10020704734
:10DB30000A7041684078182250430818704710B5A1
:10DB4000324900234A788C78A24212D0521CD2B2B9
:10DB50004A70022A00D14B704A782C4B920018333D
:10DB60009A580260086910180002000A0861012032
:10DB70003AE70360002037E7F8B52448C168002978
:10DB80003ED00E6822494C680769C078E11B0D023F
:10DB90002D0AED1C002815D101201E4A00045060FA
:10DBA0001C4A403A506018494000803108601A49C8
:10DBB00008601A49012008602F20FEF7ADFA1349CA
:10DBC0000120C870B54200D23546E8190002104B5A
:10DBD000000A403318600E4A5168001B091B0902F5
:10DBE000090A0002000AC91C814208D9506818605D
:10DBF0002F20FEF791FA0120034940040860F8BD88
:10DC0000FFF712FDF8BD000000E200E0402C00200C
:10DC1000001501404013014000E100E00010014008
:10DC200010B50446082904D0002211461046FFF71B
:10DC30000DFC21686068884710BD1CB501910090FB
:10DC4000024A08216846FFF723FC1CBD21DC0300C3
:10DC500010B5B8480378012B03D1012901D1022165
:10DC60000170100003D000221146FFF7EFFB10BD3A
:10DC700010B5B04C48DF002803D000221146FFF752
:10DC8000E5FBFFF77DFC2078022803D0032801D0B4
:10DC90000428EFD110BD38B50068401C19D000240D
:10DCA000684600F04FF900980178012910D14188A9
:10DCB00000290AD08168032000038068002200F058
:10DCC0004BF900994988814201D1012400E00024E8
:10DCD000204638BD10B5044696481C21001DFFF7AC
:10DCE00092FB002803D000221146FFF7AFFB9148BA
:10DCF00000231C222146001DFFF76CFB002803D0E7
:10DD000000221146FFF7A2FB10BD0FB4F8B568461C
:10DD100000F018F96846027E418B0123854CFF25EF
:10DD20008548002A12D0012A16D0032A2AD00021C1
:10DD3000022A36D0052A46D0042A4ED0062A01D11E
:10DD400004202070F8BC08BC04B018474180099931
:10DD500081600370057110E04180089A0799891865
:10DD6000099A89188160A521017005710799C16020
:10DD70000899426101610A99816123706E48FFF739
:10DD8000A9FFDFE700990A7802704A884280896813
:10DD90008160AA2101710799C160089901610999FF
:10DDA0000BE0009A1678A52E09D00670568846809A
:10DDB000926882600571C16001614161DDE7418067
:10DDC00081600570F6E700F02DFD002803D00022E9
:10DDD0001146FFF73BFB0320B3E7418081600570EC
:10DDE000009909790171C9E70EB5544A6B4607CA13
:10DDF00007C3FFF7C3FA002807D14E49FF2080026E
:10DE0000091D48606846FFF7D4FA0EBD10B500F052
:10DE1000BBF9002805D100F0EAFE0446FFF728FF11
:10DE2000204610BD70B511DF002803D00022114636
:10DE3000FFF70CFB424900200A68414B0121803367
:10DE40000C468440144204D0C506ED0E0C46AC408E
:10DE50001C60401C2028F3D303242403A06813DF94
:10DE6000002803D000221146FFF7F0FAA06800F066
:10DE70006FF870BD08B5684600F064F80098017846
:10DE8000A52904D00079AA2801D0002008BD0120CE
:10DE900008BD10B500F073FB002803D100F04FFB64
:10DEA00000281BD06420FFF7B1F900F0EEFA00283B
:10DEB00003D000221146FFF7C9FA00F060FB0028EA
:10DEC00003D000221146FFF7C1FA00F018FB041E30
:10DED00003D000221146FFF7B9FA204610BD00B565
:10DEE000164987B014220C3101A801F03FF90598BA
:10DEF000009001A80FC8FFF708FFFFF7B9FE002048
:10DF000007B000BD38B50446684600F01BF800981D
:10DF100001782170418861808168A1600179217157
:10DF2000C168E16001692161416961618069A06145
:10DF300038BD0000602C00206431002064F2030032
:10DF400000E100E0014901607047000000FC0300AF
:10DF500010B5FEF7F1F810BD10B50446002A02D046
:10DF60001088002210E00A48FBE7030A000203437E
:10DF7000A05C584003061B0F43401803584083B26F
:10DF80001806C00C5840521C8A42EED310BD000047
:10DF9000FFFF000070B5FB4C1E4660781546012956
:10DFA00002D0032916D108E0052813D16369002B9C
:10DFB00010D03246294604200BE002280AD1F2484C
:10DFC00040688047032060706369002B02D03246AE
:10DFD00029469847280003D000221146FFF736FA59
:10DFE00070BD00B5E74987B001200870052069467B
:10DFF00008710598009001A80FC8FFF786FE07B0CA
:10E0000000BD10B5DF480078002801D0082010BD01
:10E01000DE4C2068FFF7A4FC002803D00022114644
:10E02000FFF714FA0F21002289042068FFF75FFC34
:10E03000041E03D000221146FFF708FA204610BD47
:10E04000D04910B5CF482031016102214170C1682B
:10E050002030FFF7D8F9002803D000221146FFF73F
:10E06000F5F910BDC74910B5C64818310161022144
:10E0700041700320000380680F218903081A4108BA
:10E08000C0481830FFF7BFF9002803D0002211461E
:10E09000FFF7DCF910BD704700B5BC4987B014220A
:10E0A000091D01A801F062F80598009001A80FC8A9
:10E0B000FFF72BFEA3E700B587B001216846017189
:10E0C000B04881886846C1800320000380680590BD
:10E0D000AD4890384168029181680391C06804900E
:10E0E000059800900A46049B02990198FFF70DFEDF
:10E0F000002084E730B5A44CA248903C87B0203083
:10E10000E168FFF780F9002803D000221146FFF7ED
:10E110009DF99C48E2681830416800230830FFF7F9
:10E1200059F9050012D1142101A801F038F8002195
:10E1300068460171934881886846C180E068049010
:10E140000598009001A80FC8FFF7DFFD284607B02B
:10E1500030BD00B587B003216846017189488188C8
:10E160006846C1808848903841680291816803916F
:10E17000C0680490059800900A46049B0299019893
:10E18000FFF7C3FD00203AE7FEB5804E6B463046F0
:10E19000183007C807C37B4C0025A5702146A58011
:10E1A00020316846FFF705F9002801D06570FEBDF3
:10E1B00003207449000380682031486020390A46F2
:10E1C000126A8A610F218903091A490840186D49AA
:10E1D0006F4A1831486000216C48FFF74FFB002858
:10E1E00003D000221146FFF731F90F2100228904E4
:10E1F0003068FFF77CFB002803D000221146FFF7B0
:10E2000025F90120A56060700020FEBD5D494861D0
:10E21000704770B542685C481468536891689038DC
:10E22000D26804604360C26081600078440701D511
:10E23000840705D19C0703D18C0701D1940701D035
:10E24000062070BD5B189A184E4D0F239B02EA60A2
:10E25000994213D84F49504B4B4CC60709D0886898
:10E26000181A90420AD34D4820604D4860604D48CE
:10E270000FE08968591A4908914201D20C2070BDFB
:10E280004949216049496160800701D5484800E05B
:10E290004848A0606878012802D00826304670BD42
:10E2A000FFF7AFFE0600FAD12168E8688847F5E776
:10E2B00070B5050004D0287A800703D0102070BD07
:10E2C0000E2070BD2F4C6078032803D0042801D0A5
:10E2D000052801D0082070BD6868E1688600A06844
:10E2E0008019884204D90020C043A0600C2070BD72
:10E2F000FFF787FE0028FAD1A9683246A368206993
:10E30000FFF768F80028F2D1A1688919A160E268D6
:10E310009142ECD0092070BD10B51A4C0820A168BC
:10E32000002900D010BD61780429FBD11648A178DE
:10E33000803800F06BF9002802D00021A17010BDD8
:10E340000521617010BDF8B50E4C074660780328B2
:10E3500004D0042804D008252846F8BD04206070A5
:10E36000A068002801D00820F8BDFFF74AFE05008C
:10E37000FAD178688600A078811980291CD90920F3
:10E38000F8BD00006C2C00203032002084F2030025
:10E39000E3DF03000030000000C0030041E00300A1
:10E3A00099E00300B7E0030065E0030097E0030095
:10E3B00053E10300F5E00300914AB96810183246B2
:10E3C00000F0D4FEA0788019A070C5E710B58D4C80
:10E3D0006078052813D1E168A06888420FD1062033
:10E3E0006070FFF70EFE002808D12069E1684068E0
:10E3F00000F047F9002801D10721617010BD082005
:10E4000010BD10B57F484078072801D0082010BD06
:10E410007D480068FFF7A4FA002803D000221146C7
:10E42000FFF714F8764880308068804710BD00B54B
:10E4300087B00620694608710598009001A80FC8AA
:10E44000FFF763FCDBE5F8B51C4617460D460646AC
:10E4500000F0C1F8002817D001200003854207D939
:10E460002346291B301B1A46FFF7EDFF00280BD16E
:10E470003A462946304600F0B9F8002804D13A4619
:10E480002946304600F0A7F8F8BDF0B589B06846D7
:10E49000FFF738FD039800282AD001210903069AC6
:10E4A0004018904226D9501A45081046039A0C4647
:10E4B0008718024668001618001907900320000309
:10E4C0008068039988420DD261190846042200F041
:10E4D0008DF800280CD121460422084600F086F869
:10E4E000002805D1BA1B2B4630460799FFF7ABFF32
:10E4F00009B0F0BD039A069800F078F8F8E700B587
:10E500008BB004A8FFF7FEFC089800280DD00798F0
:10E5100000280CD007990A9840180190002108980B
:10E52000009180080290684618DF0BB000BD032000
:10E53000000380680F218903091A4908ECE700B538
:10E540008BB004A8FFF7DEFC08980028EDD00F215F
:10E550000798890300280CD0079A0A98019180181F
:10E56000029003220898009280080390684618DF02
:10E57000DBE70320000380680A1A5208EEE730B593
:10E580008FB06846FFF7BEFC0398002814D0012125
:10E590000903069A4018904214D9501A43081046AD
:10E5A000039A5C0082180019611803242403A468EC
:10E5B000039DAC4202D20E200FB030BD121AFFF7FD
:10E5C00042FFF9E703200BAB07C3039880080E90C6
:10E5D0000BA818DFF0E71FB5032301909008039004
:10E5E00000930291684618DF04B010BD1FB50123E7
:10E5F00001909008039000930291684618DFF3E7BA
:10E60000B03100206C2C002084F2030070B500258E
:10E610000C290ED304464318008941000919581AE1
:10E620000A38C2B21E48022A027002D30A318B4253
:10E6300001D2092070BD1B4800F098FD1A481B4903
:10E6400002888A4202D02388934218D140888842A7
:10E6500002D06188814212D1144A0323521E2089BC
:10E660001B03A8420BD9690009194989914204D0BA
:10E670009E896D1CB6B2B142F3D1002070BD0B2053
:10E6800070BD10B50022FFF767FC064A517812787A
:10E6900009021143884201D00B2010BD002010BD9B
:10E6A000942C00203C32002080100010FFFF00005E
:10E6B00008280CD004DC002807D006280FD108E079
:10E6C0000B280AD00C280AD105E00120704702204F
:10E6D00070470320704704207047042901D00620AA
:10E6E00070470520704770B515460A46032823D0A9
:10E6F000042820D1FC4C002906D0E088FB49884240
:10E7000019D0132176DF10E0284600F021FC002804
:10E7100003D000221146FEF799FEA069A8420AD153
:10E7200001220321F248FEF70BFB002803D0002250
:10E730001146FEF78BFE70BD01211046FFF7B8FFB2
:10E7400002460121EEE7F0B50546087A0E4685B08F
:10E7500081070CD0032211462846FEF7F1FA002863
:10E7600003D000221146FEF771FE05B0F0BDDE4970
:10E770000090143100F0C5FB010011D1DA4C716832
:10E78000009A606900F0F2FC009800F014FC0100AF
:10E7900006D120466946143000F019FC010003D070
:10E7A000284600F0F7FAE0E704200190009880087E
:10E7B00002906069039001A8FFF77AFD07000BD073
:10E7C000092F10D0606900F0C3FB010002D0284679
:10E7D00000F0E0FA3946E3E7307A21694018206119
:10E7E0006069A061C1E7307A2169411821616078D0
:10E7F0000028BAD06089401E0004000C6081B4D1AA
:10E800002846FEF7F4FB002803D000221146FEF74D
:10E810001DFE20896081A8E710B500221146FEF791
:10E8200015FE10BD10B5B04C01202070E088AF4936
:10E83000884208D0132176DF002813D00022114629
:10E84000FEF704FE0EE0A07800280BD074DF00284D
:10E8500003D000221146FEF7F9FD152000F068FAFA
:10E860000020A070FEF7DFF9002803D00022114637
:10E87000FEF7ECFD002010BD70B50D7804460120B8
:10E88000994A2B0000F0C0FC0A2B30430613205796
:10E890005C466012FFF79AFD0421FFF709FF02466C
:10E8A00004212EE000221146FEF7D0FD70BDFFF7D7
:10E8B000B9FF002803D000221146FEF7C7FDFFF77D
:10E8C000A0FD002808D170BDFFF7ACFF002803D0E1
:10E8D00000221146FEF7BAFDFFF7A9FD70BD1071C9
:10E8E00048680078507170BD022010714868007847
:10E8F0000128F8D1FFF710FD0221FFF7D9FE0246EB
:10E9000002212046FEF71CFA0028CBD170BD03205F
:10E91000107170BD12792046012A06D0022A07D054
:10E92000032AF6D1FFF70FFF70BD00F046FA70BD65
:10E9300000F080FA70BD507088881081508170BDE1
:10E9400000205070108170BD20461169FEF718FB41
:10E95000DAE710B50446664890B081796846817060
:10E9600064490180382101A800F019FC02216846A1
:10E97000017100218171C471012181810490002104
:10E9800001A8FDF763FF002803D000221146FEF71F
:10E990005DFD10B010BDF0B5534C8BB0A0780028D1
:10E9A0003ED153481821183800F0F9FB2046504C4E
:10E9B000C078183C0025012600283BD02746483760
:10E9C00000950195029510226946F81D039500F007
:10E9D000F1FB002826D0F81D0890099768460675B7
:10E9E00009A804906846067708A806900420FFF757
:10E9F000B0FF25700220207204A8E0602820208249
:10EA00003B486582183873DF002803D00022114686
:10EA1000FEF71CFD012038494005C8603248867069
:10EA20000BB0F0BD0520FFF794FF267067602572DC
:10EA30002582E5E70620FFF78CFF257065602572CB
:10EA4000DCE7F0B50546284C008800270122E6885F
:10EA5000A7B0172810D024DC11284FD00EDC0228D4
:10EA60007ED0102808D124498004C860152000F009
:10EA70005FF9A888E080A77027B0F0BD1C4C303447
:10EA800027461837132855D01428F5D1E889628D08
:10EA90000021904200D139460023A888E21D82DF80
:10EAA0001BE0512873D00EDC18286FD01928E3D151
:10EAB000A8790028E0D1A770E068401EE06054D03B
:10EAC000FFF769FFD8E752287BD05528D4D1A87921
:10EAD0000028D1D11321304676DF0028CCD0002287
:10EAE0001146FEF7B3FCC7E7982C0020FFFF00009B
:10EAF000603200203015000000050050802069467B
:10EB000088803220E060162000F012F9012301AA6B
:10EB100006A9E088AADF002803D000221146FEF7EC
:10EB200095FC2078002801D1FFF735FF0020C04375
:10EB3000E080A1E70722DC4910A800F017FB1022B3
:10EB4000E11D0CA800F012FB1C22394612A800F0AF
:10EB50000DFB0CA80A9012A806ABD44A852100E050
:10EB60000FE0099030467FDFB7E71422D04906A8AE
:10EB700000F0FCFA0A9806AC00900FCCFFF7C5F83D
:10EB80007AE70021304667DFA7E700E019E0A979BE
:10EB9000002997D0A87A042803D0062801D0052898
:10EBA00090D1022909D068460272FF20833069465D
:10EBB000888102A93046A8DF8FE7022069460872E3
:10EBC000F3E700F0BAF888E710B50446FEF75FF8FF
:10EBD000B54821463038FEF791F92046FFF731FF5E
:10EBE00010BD10B500221146FEF730FC10BD30B547
:10EBF000AE4D87B000241C3D2C702C71152000F008
:10EC000091F8162000F08EF8152000F091F81620EB
:10EC100000F08EF8A74800F05BFA00287CD1A648E7
:10EC2000FFF7F4FA00F05EF9002875D19E48FDF771
:10EC3000C9FA002873D0684671DF002803D000228B
:10EC40001146FEF703FC69464878401C48700020D6
:10EC500070DF002803D000221146FEF7F7FB1120D9
:10EC600069460872072295A102A87CDF002803D01C
:10EC700000221146FEF7EAFB00940C21684601943D
:10EC8000018018214180FF2184809131C1807ADF89
:10EC9000002803D000221146FEF7D8FB0820694661
:10ECA0000094088087480190874802907E48303859
:10ECB000FEF7E4F8002803D000221146FEF7C6FB59
:10ECC0001C21684600F06BFA804801900120800307
:10ECD00002900094032168460173C48104747C4847
:10ECE000069005946846FDF77CFF002803D00022BB
:10ECF0001146FEF7ABFB6D49E12208784008400061
:10ED00001040DF220C30104008700720487010209F
:10ED10008870FFF740FE002007B030BDFFE70120FC
:10ED2000E8709CE76B4A03218000801801607047FF
:10ED30000121814068488160704770B55B4C674D28
:10ED40001C3CE088A84201D1082070BDE178002970
:10ED50001BD05549012308223431A9DF0028F4D102
:10ED6000022300221146E088A9DF0028EDD12A46BF
:10ED70000C21E088A7DF5A49884204D0082802D035
:10ED8000891C8842E1D1002070BD00231A46194633
:10ED9000A9DF70BD10B50A46044603211046FFF7EF
:10EDA00087FC024603212046FDF7CAFF002803D056
:10EDB00000221146FEF74AFB10BD30B5054687B06C
:10EDC0000020009001900290039038486A461C3859
:10EDD00040791070364A0C3A106892680490684680
:10EDE00006920590087A0C2806D003221BE0002228
:10EDF0001146FEF72BFB8FE74C68204600F049F8E0
:10EE00000190201D00F045F802902046083000F0E7
:10EE100040F8039004A8FFF7FCF90028EBD001218B
:10EE2000FFF746FC024601212846FDF789FF00282E
:10EE3000DDD171E7FEB50446087A82070ED082075D
:10EE4000920F04239B1A0022154604E04E683554A5
:10EE5000401CC0B2521C9A42F8D3087201200090A4
:10EE600048680290087A800801906846FFF76BFABC
:10EE700000280DD00221FFF71BFC0246022120468C
:10EE8000FDF75EFF002803D000221146FEF7DEFAF0
:10EE9000FEBD10B5044600F09AF90002E178000AC0
:10EEA0000906084310BD000090320020B42C002059
:10EEB000B4F20300C9EB0300E7E6030044667554AF
:10EEC0006172670079E80300E3EB0300CD0C0000FA
:10EED00019E803000007005000050050FFFF000084
:10EEE000023000004B48002101704C484A4A026041
:10EEF0008160C16001610822416142608161084610
:10EF0000704710B500291DD000220A60434A53689B
:10EF1000002B1BD0202817D85B1E5360D0682423F9
:10EF2000401CD060106914684343E3180B60012350
:10EF300083409169401C19434007400F9161106163
:10EF4000002010BD0E2010BD0C2010BD042010BDEF
:10EF5000F0B5324A0646916800292AD05769102038
:10EF6000791A4907490F14680B4624254D43651942
:10EF7000B54206D1012495698C4065400020956119
:10EF800004E0491C4907490F8F42EED1491C4E0746
:10EF9000760F956901210C469C4025420AD1936861
:10EFA000002B07D05B1E936053685B1C5360334695
:10EFB000F1E70420F0BD194A2423117C1268491E90
:10EFC0004907490F5943203150500020704770B510
:10EFD00000281AD0002918D0104AD368002B16D068
:10EFE0005B1ED360936824265B1C9360536915688D
:10EFF0001C467343EE1820330660E858641C086012
:10F000006007400F5061002070BD0E2070BD0420CD
:10F0100070BD0000B92C0020CC320020EC33002061
:10F0200010B508461146FDF7EBF810BDF8B5384CA1
:10F030002078002837D02069002807D00026E06813
:10F04000002805D00025002E04D013E00126F6E7A5
:10F050000125F8E7684651DF052806D0002806D0CC
:10F0600000221146FEF7F2F904E0012602E02169D0
:10F0700000988847002D12D1608869460880A068F2
:10F0800061DF052806D0002806D000221146FEF7D1
:10F09000DDF904E0012502E0E168A0688847002E60
:10F0A000D8D0002DCFD0F8BD70B5002901D08C0785
:10F0B00001D0072070BD164C0125A1606280154962
:10F0C000636010DF0028F5D1257016202EDF70BD9B
:10F0D000002803D00E49C860002070470E207047FA
:10F0E000002803D00A490861002070470E207047AD
:10F0F00010B507484068002807D08047002803D093
:10F1000000221146FEF7A2F910BDFFF78FFF10BDD8
:10F11000C02C002021F0030010B5002904D00022EB
:10F1200011461046FEF792F9FFF780FF10BD10B5AB
:10F130000021024A0846FEF7ABF910BD19F10300A1
:10F1400030B50B46014600202022012409E00D467F
:10F15000D5409D4205D31D469540491B2546954007
:10F1600040191546521E002DF1DC30BD03460B43FD
:10F170009B0703D009E008C9121F08C0042AFAD26D
:10F1800003E00B780370401C491C521EF9D27047F3
:10F19000D2B201E00270401C491EFBD2704700222F
:10F1A000F6E710B513460A4604461946FFF7F0FF86
:10F1B000204610BD30B504460020034600E05B1C2D
:10F1C000934203D2E05CCD5C401BF8D030BD0321FC
:10F1D000001D401E037812021A43491EF9D510463D
:10F1E00070470000064C0125064E05E0E36807CC99
:10F1F0002B430C3C98471034B442F7D3FCF764FF20
:10F20000C8F20300E8F2030030B47446641E2578A7
:10F21000641CAB4200D21D46635D5B00E31830BC4A
:10F22000184702E008C8121F08C1002AFAD1704727
:10F230007047002001E001C1121F002AFBD1704776
:10F2400002000000000000000000000000000000BC
:10F250003430002023D1BCEA5F782315DEEF121290
:10F260000000000051DC030000000000000000006E
:10F27000020000000000000000000000000000008C
:10F2800000000000803100200400000000000000A9
:10F2900000000000000000000000000095DF0300F7
:10F2A000000000000000000003000000000000005B
:10F2B0000000000005000000000000000000000049
:10F2C0000000000000000000E8F20300002C002015
:10F2D000D400000022F20300BCF30300D42C002071
:10F2E000340F000032F203000024F400000000009C
:10F2F000000000000000000000000000000000000E
:10F3000000000000000000000000000000000000FD
:10F3100000000000000000000000000000000000ED
:10F3200000000000000000000000000000000000DD
:10F3300000000000000000000000000000000000CD
:10F3400000000000000000000000000000000000BD
:10F3500000000000000000000000000000000000AD
:10F36000000000000000000000000000000000009D
:10F37000000000000000000000000000000000008D
:10F38000000000000000FFFF00000000320000004D
:10F39000000000000000000000000000000000006D
:10F3A000000000000000000000000000000000005D
:0CF3B00000000000000000000000000051
:020000041000EA
:0410140000C0030015
:040000050003C0C173
:00000001FF
