:020000040001F9
:10800000A02F0020498101006381010065810100EA
:108010000000000000000000000000000000000060
:108020000000000000000000000000006781010067
:108030000000000000000000698101006B81010068
:108040006D8101006D810100C98501006D81010014
:108050006D81010000000000698201006D81010056
:108060006D8101006D8101006D8101006D81010054
:108070006D8101006D8101006D8101006D81010044
:108080006D810100298501006D810100F5830100EA
:10809000518501006D810100598501006D8101004C
:1080A0006D8101006D8101000000000000000000F2
:1080B00000000000000000000000000000000000C0
:1080C0000348854600F0BEF80048004739C4010067
:1080D000A02F0020401E00BF00BF00BF00BF00BF98
:1080E00000BF00BF00BF00BF00BF00BF00BFF1D195
:1080F00070470000401E00BF00BF00BF00BF00BFB0
:1081000000BF00BF00BF00BF00BF00BF00BFF1D174
:1081100070470000056885F308884068FF2464B252
:10812000EFF30585002D01D1A646004725460646FA
:1081300021273FBAF0B40024002500260027F0B420
:10814000F92040B2004700000321094802680A43B1
:108150000260084802680A430260074880470748EF
:108160000047FEE7FEE7FEE7FEE7FEE7FEE700006A
:10817000240500405405004091850100C1800100A4
:1081800030B50B46014600202022012409E00D46AF
:10819000D5409D4205D31D469540491B2546954037
:1081A00040191546521E002DF1DC30BD70B500247B
:1081B0002546002801DA01244042002901DA012580
:1081C0004942FFF7DDFFAC4200D04042002C00D016
:1081D000494270BD03460B439B0703D009E008C921
:1081E000121F08C0042AFAD203E00B780370401C67
:1081F000491C521EF9D27047D2B201E00270401CF5
:10820000491EFBD270470022F6E710B513460A4616
:1082100004461946FFF7F0FF204610BD421C0178C6
:10822000401C0029FBD1801A704730B5044600205D
:10823000034600E05B1C934203D2E05CCD5C401B34
:10824000F8D030BD064C0125064E05E0E36807CCAA
:108250002B430C3C98471034B442F7D3FFF734FF5C
:108260007CE301009CE30100F0B587B0002600200C
:108270000690FF20013005900125002416E00598A6
:1082800004F082FA00280BD000BF5648406828400E
:10829000002805D0059804F06FFA304628430646BA
:1082A0006D000598001D80B20590641C042CE6D377
:1082B000FF207D3004F068FA00280AD0FF207D30CE
:1082C00004F05AFA0120C007064300BF464800697F
:1082D00006903007000F00282AD00125002425E051
:1082E0002846304000281FD000BF404851210901D6
:1082F0004018A10040581F2109020840000A0490BC
:1083000000BF3A48512109014018A10040580321FB
:1083100009040840000C0390204601F0E7FB0746E3
:1083200003990498B84700BF6D00641C042CD7D390
:10833000F00FC007002852D000244EE02C48005710
:10834000401C002848D02A48005D0490C0210498B1
:1083500088430746384601F0D1FB029001F0C6FB86
:1083600003900398002836D0C0210498084080115B
:1083700002900120B840054600BF052000070721F4
:1083800009024018B9004058032109040840000CB4
:10839000019006982840002802D00198022806D0B3
:1083A00006982840002815D10198032812D1029878
:1083B00003280BD10198022801D1032000E00220FC
:1083C00000903846009904F09EF900BF3846039AA1
:1083D0000299904700BF00BF641C042CAED307B0C5
:1083E000F0BD000000630040000500500060004048
:1083F0006C26002001200A4988600A48006800288D
:1084000002D10949087006E006480068012802D137
:1084100002200549087000200449C8607047000028
:1084200000300140003401401420002000310140A0
:1084300008200C4948601320012181400A4A11603C
:1084400000BF0A488068032108430849886008463D
:10845000406801210843054948600120086004493B
:10846000086070470033014000E100E00035014042
:1084700000300140C206D20E01219140014A116034
:108480007047000080E200E0C206D20E0121914058
:10849000014A11607047000000E100E0C206D20E00
:1084A00001219140014A11607047000000E200E0A4
:1084B00010B5002819DA1A4A03071B0F083B9B085E
:1084C0009B00D2588307DC0EFF23A3409A438B07FF
:1084D0001B0E8407E40EA3401A43114B0407240F1C
:1084E000083CA408A4001A5118E00E4A03231B02FA
:1084F000D21883089B00D2588307DC0EFF23A340C9
:108500009A438B071B0E8407E40EA3401A43054BC6
:10851000032424021B198408A4001A5110BD000072
:108520001CED00E000E100E010B500200749086004
:108530000021064841608160C16000200349403944
:108540000860486005F0AEFC10BD0000401101401D
:1085500010B505F0BBFB10BD70B50C4800680028D5
:1085600010D00A4800688047044600BF2546002D09
:1085700006D000BF00221146284600F065FA00BF71
:1085800000BF01E003F0F4FC70BD000010210020EA
:1085900010B503F0B7FD002805D00748074948602B
:1085A000C8130749886103F091FD002802D001201B
:1085B0000449886010BD0000DFFF07C000050040CF
:1085C000006C0040000600401FB5012149024A48E6
:1085D00004F0FFF800282FD0FF212531464804F091
:1085E000E8F8002828D0FF212531434804F0E9F8B5
:1085F00081218900404804F0E7F84048407D002888
:1086000003D104213C4804F0F0F8022069460870C8
:10861000394804F0C4F803903848C17C68460172B8
:108620003648C068019000203449C8740846016883
:1086300042686846904725E004212F4804F0C9F8B5
:1086400000281FD0FF2109312B4804F0B2F8002880
:1086500018D004F041FF2948C07C2849097D884290
:1086600010D12648407D002803D10421224804F07F
:10867000BCF881218900204804F0A6F81F49087D34
:1086800004F046FFFF211D311B4804F092F800283A
:1086900015D01A48807C1949098A884202DD05F004
:1086A000A5FC0CE0FF211D31134804F08AF81348A3
:1086B000807C002803D01149887C05F0B3FCFF21A1
:1086C00045310D4804F075F8002814D0FF214531DC
:1086D000094804F076F80948407D002803D00021BD
:1086E000054804F082F80548C07C002803D00349FF
:1086F000087D04F00DFF1FBD0020004074260020FF
:1087000030B47446641E2578641CAB4204D3635DA8
:108710005B00E31830BC18471D46F8E702E008C8C4
:10872000121F08C1002AFAD170477047002001E0EB
:1087300001C1121F002AFBD170477047F7B582B004
:10874000044616460025378800203080606B0028DC
:108750000CD0616B08783B463246039904F0EEFE7C
:108760000546002D02D0284605B0F0BD206B00283C
:108770000AD03B463246206B039905F013FC0546B0
:10878000002D01D02846EFE72E20005D00280BD0F9
:108790002E21085D3B463246039903F046FD05460F
:1087A000002D01D02846DFE72D20005D002809D0EC
:1087B0003A463146039800F087FE0546002D01D069
:1087C0002846D1E7A078002809D03A4631460398D8
:1087D00000F052FA0546002D01D02846C4E7E078A3
:1087E00000280BD0E17848B23B463246039903F0AB
:1087F00013F90546002D01D02846B5E7606800282A
:108800000CD00020616808563B463246039905F0BB
:108810001FFC0546002D01D02846A5E72089002829
:108820000DDD019700960622022120460830039BA9
:1088300005F0C8FC0546002D01D0284694E7208AA3
:1088400000280DDD019700960722032120461030F5
:10885000039B05F0B7FC0546002D01D0284683E7B1
:10886000208B00280DDD019700961522142120464B
:108870001830039B05F0A6FC0546002D01D02846C4
:1088800072E7206A00280AD03B463246206A0399E4
:1088900001F08CFB0546002D01D0284664E7606A94
:1088A00000280AD03B463246606A039903F058FE1E
:1088B0000546002D01D0284656E72C20005D0028F3
:1088C0000ADD3B4632462046039904F052FE054637
:1088D000002D01D0284647E7207800280AD03B46E3
:1088E00032462046039903F077FE0546002D01D05D
:1088F000284639E7284637E70146C8780422104061
:10890000002801D1072070470020FCE730B599B05E
:1089100038210BA8FFF777FC022108A80173012179
:1089200081730621C1730121684681871149109125
:10893000242102A8FFF767FC012168460175642025
:108940000690002007900C4B02AA014600900BA84D
:1089500000F016FA044600BF2546002D06D000BFE1
:1089600000221146284600F06FF800BF00BF19B082
:1089700030BD000004200020F1C7010070B574DF95
:10898000044600BF2546002D06D000BF0022114638
:10899000284600F059F800BF00BF70BDFEB506467E
:1089A00004200190224802906946304602F04CF8BB
:1089B0000446002C31D11E480078C007C00F0028A3
:1089C0001BD01C4A0C211C480088A7DF0446002C41
:1089D00013D01A48844210D0082C0ED0801C844238
:1089E0000BD0112C09D01648844206D000BF0022BB
:1089F0001146204600F028F800BF304601F0C6FFBF
:108A0000044600BF2546002D06D000BF00221146B7
:108A1000284600F019F800BF09E00A48844206D051
:108A200000BF00221146204600F00EF800BFFEBD38
:108A300018200020FFFF000000200020023000006E
:108A4000013400004080000000BF00BF00BF00BF35
:108A500000BFBFF34F8F00BF00BF00BF06480749EC
:108A6000C86000BF00BF00BFBFF34F8F00BF00BF93
:108A700000BF00BF00BFFDE70400FA0500ED00E005
:108A8000F8B504460D46164603480768324629469F
:108A90002046B847F8BD000008260020F8B5054676
:108AA0000C4627780C21A068484306490E58064812
:108AB000006800902A463946204608302369B047AE
:108AC000F8BD000058270020DC20002010B5044627
:108AD0000648007814225043044A121D811820468B
:108AE000FFF7DCFF042004F025FE10BD8C260020DB
:108AF00010B503460C460D480068002801D1082037
:108B000010BD002A01D10720FAE7002B01D1072070
:108B1000F6E71868007C002801D00820F0E7196803
:108B2000002008744C744A6100BFE9E7E820002087
:108B3000FFB581B00E4614461F4620468107890FB7
:108B4000002901D1012100E00021002902D10720E4
:108B500005B0F0BD002C04D100201C49086007209E
:108B6000F6E704F08DFC1A480760032019490870E5
:108B700016480460183400250CE0E900134A126816
:108B8000881800210170417086704460182171437B
:108B90000C196D1C032DF0DB00200F4908600F49F4
:108BA00008700F4908701420FFF764FC032114209B
:108BB000FFF77EFC1420FFF767FC019804F036FCF9
:108BC00004F02EFC074908600020C1E7E8200020DF
:108BD00000210020E4200020EC200020FC200020C8
:108BE000FD200020F0200020FEB504460D4617466B
:108BF000264612480068002801D10820FEBD002C3E
:108C000001D10820FAE7052D01D20720F6E77069A7
:108C1000002801D10820F1E7707C012801D1284605
:108C200000E00020029005F0A3FA009701902A4688
:108C30003146029B05F0EAF8E0E70000E82000205A
:108C400070B5044625460B480068002801D108206D
:108C500070BD002C02D06869002801D10820F7E718
:108C60000020287405F084FA0646294605F0FAF833
:108C7000EEE70000E8200020F8B505460C46174650
:108C80002088001DB84201D90C20F8BD684679DF64
:108C90000646002E01D03046F7E7032021886854AD
:108CA0002088401C20801920218868542088401C7E
:108CB0002080208841196846008805F0EAF921885B
:108CC000401820800020E0E770B500220121C90390
:108CD00008480068FFF788FF044600BF2546002DBE
:108CE00006D000BF002211462846FFF7ADFE00BFA8
:108CF00000BF70BDF8E20100F3B593B00D461F212F
:108D0000129111911398002814D01398FFF7F4FDD5
:108D10000446002C02D0204615B0F0BD12AA09A9C5
:108D20001398FFF70BFD0446002C01D02046F3E713
:108D300009AE02E0002600201290002D13D0284634
:108D400004F058FD0446002C01D02046E4E711AAA7
:108D500001A92846FFF7F2FC0446002C01D020466A
:108D6000DAE701AF02E000270020119010A8808808
:108D7000C3B210A80089C1B23A46304672DFCBE7D1
:108D8000F8B504460F4615461E46002C01D0002DAE
:108D900001D10E20F8BD00204849087048480660FF
:108DA000484906980860242229464748FFF712FAE6
:108DB00000F04CF94548464908604648886038212B
:108DC0004548FFF720FA207843490870A07888705A
:108DD000E078C87060784870626920694A6108610B
:108DE0000846E268A168C2608160E269A169C26167
:108DF0008161606A00281BD0384837494862384989
:108E00008160606A00883449496A0880606A8088A5
:108E10003149496A8880002005E0616A8968095CF7
:108E20002F4A1154401C2C49496A89888142F4D840
:108E3000A06A002824D02B492B48816026498862EB
:108E400028492548806A8160A06A80882249896A09
:108E50008880A06A00882049896A0880002005E08F
:108E6000A16A8968095C1F4A1154401C1A49896A21
:108E700089888142F4D82C20015D17482030017385
:108E8000206A00280BD0194813490862206A4088DC
:108E9000096A4880206A00880F49096A088060686A
:108EA000002804D012480C49486060684860394680
:108EB0000948FFF721FF009000986BE7342000205D
:108EC0002C20002030200020D42300200824002063
:108ED000F8230020282400209C2300204824002080
:108EE00054240020802400207424002038200020F6
:108EF0003C20002070B504462088102804D011289A
:108F000006D0192869D11AE0A0883549088065E0A3
:108F1000002034490870A0883149098888420DD161
:108F2000012000F09BF80546002D07D02E48006870
:108F3000002803D028462C49096888474EE0A079CC
:108F4000002849D129480078012806D0022813D0EA
:108F5000032820D004283DD12FE0022000F07EF825
:108F60000546002D07D020480068002803D0284679
:108F70001D49096888472EE0032000F06FF8054678
:108F8000002D07D018480068002803D0284616494D
:108F9000096888471FE0032015490870042000F085
:108FA0005DF80546002D07D00F480068002803D063
:108FB00028460D49096888470DE000200C490870D3
:108FC0000C480068002804D0084600780949096860
:108FD000884700E000BF00BF00E000BF00BF70BDD9
:108FE0003E200020352000203020002034200020AA
:108FF000282000202C20002070B504460025022CDB
:1090000002D0032C18D100E000BF0D4800780028E2
:1090100011D000200A4908700A48007800F01EF8B4
:109020000546002D07D008480068002803D02846D0
:1090300005490968884700E000BF00BF70BD000017
:1090400020200020342000203020002010B50721EF
:109050000148FFF7D8F810BD2120002030B587B0B7
:109060000546A248057000200090684603F038FECF
:109070000446082C02D10020009004E0002C02D00D
:10908000204607B030BD0098002804D00120984940
:1090900008700020F5E7FFF7D9FF964840780028D0
:1090A00003D092480078012807D0924880780028A1
:1090B00012D08E48007802280ED18F480068002810
:1090C00007D001208D49087008208B49096888471E
:1090D00002E00020894908708448007801280BD1FB
:1090E00084484078002804D0854803F05DFD0028BE
:1090F00002D102207D4908707C48007802280BD1FB
:109100007C488078002804D07D4803F04DFD00287D
:1091100002D10320754908707648007B002806D1EB
:1091200072480078032802D1042070490870714801
:10913000007E002808D16D480078042804D1002062
:109140006A4908706F4908706B480068002817D09A
:1091500066480078032803D06448007804280FD1BB
:109160006448007800280BD067480078002807D1B1
:1091700001206649087007205F490968884702E0B6
:10918000002062490870182101A8FFF73CF800216F
:109190006846017100200290684601730020049027
:1091A00052480078012806D0022811D0032823D085
:1091B000042879D150E05248401E029001216846AF
:1091C00001710021C182818201204E49087075E041
:1091D0004B48401E029001216846017145480089B4
:1091E00081B26846C1824348808881B268468182E4
:1091F00002204449087061E03E48808A81B2684696
:10920000C1823C48008A81B268468182404805F0AC
:1092100067F800281CD037480078002818D03A4852
:109220000078002814D10220694608733848049059
:1092300004203849C87000213648FFF75DFD044618
:10924000002C01D020461CE705202E49087002E0C2
:1092500003202C49087031E02648808B81B2684693
:1092600081822448008C81B26846C182284805F07A
:1092700037F800281DD01F480078002819D0224850
:109280000078002815D10220694608732048049010
:1092900004202049C87000211E48FFF72DFD044618
:1092A000002C02D02046ECE607E0062015490870A5
:1092B00002E004201349087000E000BF00BF0B4823
:1092C0000078002806D001A873DF0446002C01D0E6
:1092D0002046D6E608480068002804D009480078EF
:1092E0000549096888470020CBE6000034200020AB
:1092F00020200020D42300202C2000203720002014
:1093000022200020282000203520002036200020A8
:10931000F82300209C23002070B586B004460E463A
:10932000184B0FCB01AD0FC5002C01D0002E02D180
:109330000E2006B070BD0020C043A08130682061BF
:10934000214601A863DF0546002D01D02846F0E73D
:1093500021786846817501218182A21C05A901201E
:10936000A0DF0546002D01D02846E2E73146204621
:1093700002F057FD0546002D01D02846D9E7002010
:10938000D7E70000FCE201007FB504460D46002C43
:1093900001D0002D00D17FBD2888502827D006DCC1
:1093A000012809D0102818D0112825D11AE05128F9
:1093B00003D0522820D10AE000BF01216846017085
:1093C000002181808171A0896946A8DF15E0A0890C
:1093D00000231A461946A9DF0FE02946204603F06C
:1093E00073FA0AE02946204603F03AFB05E02946D5
:1093F000204603F082FB00E000BF00BF00BFCAE7C9
:1094000070B505461C2229461448FEF7E3FE0020ED
:1094100013490870286800280BD0082211482968D1
:10942000FEF7D8FE0F487ADF0446002C08D020460D
:1094300070BD0C487BDF0446002C01D02046F7E7C6
:109440000020C04308490880002008490870084AE5
:1094500000210848FFF74CFBEAE70000A0240020A9
:1094600054200020402000204A20002048200020D6
:10947000D5E001000CE3010010B504462088102857
:1094800006D0112808D012280ED0502810D107E09D
:10949000204603F01DFA0CE0204603F0E5FA08E050
:1094A000204603F03DFB04E0204603F001FA00E013
:1094B00000BF00BF10BD000010B502480068FFF7F4
:1094C000BFFB10BD0CE30100FEB505460C46174678
:1094D00020880930B84201D90C20FEBD684671DFF2
:1094E0000646002E01D03046F7E708202188685450
:1094F0002088401C20801B20218868542088401C24
:10950000208021884819062200A90131FEF762FE59
:109510002088801D208068460078002802D121889C
:10952000685402E00120218868542088401C208073
:109530000020D2E770B586B004460E46002C04D059
:10954000002E02D07068002802D10E2006B070BD37
:109550000020C0432080204B0FCB01AD0FC51F481A
:1095600069468882163101A863DF0546002D01D0C7
:109570002846EBE7221D05A90120A0DF0546002DA6
:1095800001D02846E2E76846807DA071204601F0C0
:1095900027F90546002D01D02846D7E7204601F0DF
:1095A000AFF80546002D01D02846CFE731462046CA
:1095B00001F080F90546002D01D02846C6E7706805
:1095C000A062B068002801D0B068E06201200449C0
:1095D00008700020BAE7000010E301003015000019
:1095E0005520002070B505460C46002D01D0002CFA
:1095F00000D170BDA86A00281FD02088102806D08E
:1096000011280ED0502807D0512814D10EE0214641
:10961000284603F07BF90FE02146284603F0AEFA16
:109620000AE02146284603F041FA05E02146284693
:1096300003F040FA00E000BF00BF00BFD9E7000020
:1096400070B586B004460D461646002C02D10E2099
:1096500006B070BD20881A49884203D019480078A6
:10966000002801D10820F3E700210191102168466C
:109670008288501C83B214480193815468468188C3
:10968000481C82B210480192455468468188481CA3
:1096900082B20D480192465400200290039004903B
:1096A0000590218A68460181012181720021818112
:1096B00001A8049004480590208802A9A6DFC7E706
:1096C000FFFF000055200020562000207FB50446F3
:1096D00000BF0121684681735D49818100BF5D4AF9
:1096E00003A90120A0DF0546002D02D0284604B0C2
:1096F00070BD208800280DDD574800902288234641
:109700003C335648616800F0FFF90546002D01D052
:109710002846ECE7208900280EDD51480090228978
:1097200023463C334D48401FE16800F0EDF9054603
:10973000002D01D02846DAE7208A00280EDD4948AE
:109740000090228A23463C334448001F616900F0A0
:10975000DBF90546002D01D02846C8E7208B0028FC
:109760000EDD41480090228B23463C333B48801E4F
:10977000E16900F0C9F90546002D01D02846B6E799
:10978000208C00280EDD39480090228C23463C3383
:109790003248C01E616A00F0B7F90546002D01D0BD
:1097A0002846A4E7208D00280EDD31480090228D48
:1097B00023463C332948401EE16A00F0A5F90546DE
:1097C000002D01D0284692E7206B002813D001A875
:1097D000216B04F0C6F9274823463C33082201A92F
:1097E00000901E48801F00F08FF90546002D01D023
:1097F00028467CE700BF606B00280FD01E48009011
:10980000606B027923463C3301681448401C00F029
:109810007BF90546002D01D0284668E7A06B00289B
:1098200013D001A8A16B03F0FBF9144823463C3385
:10983000072201A900900948273000F065F9054684
:10984000002D01D0284652E700BF00204FE700005E
:109850000A1800005E20002060200020292A000055
:109860006820002070200020782000208020002028
:10987000882000209020002098200020A020002098
:1098800010B50446204601F00BFA2046FFF7F4FD20
:1098900021460748FFF7A6FE204602F0DBFF2146DF
:1098A0000448FFF771FD2046FFF724FB10BD0000C0
:1098B0005C2100204821002070B504460D46284652
:1098C000FEF7ACFC2080656070BD00007CB500BF79
:1098D000002348222349122003F04CFF054600BF15
:1098E0002E46002E06D000BF002211463046FFF75C
:1098F000ABF800BF00BF00BF002000900190012026
:1099000069460870684660DF044600BF2546002DA2
:1099100006D000BF002211462846FFF795F800BF89
:1099200000BF114803F01AFF044600BF2546002D72
:1099300006D000BF002211462846FFF785F800BF79
:1099400000BF0A4803F04AFF044600BF2546002D29
:1099500006D000BF002211462846FFF775F800BF69
:1099600000BF7CBD542300208198010051DB010021
:109970007CB5032002F0BBFE192002F0B8FE0020E7
:1099800002F0B5FE042002F0B2FE112002F0AFFE9C
:10999000032002F0DBFE192002F0D8FE002002F0C6
:1099A000D5FE042002F0D2FE112002F0D7FE1720CF
:1099B00002F09DFE172002F0D1FE1A2002F097FE61
:1099C000152002F094FE152002F0C0FE1A2002F0CD
:1099D000C5FE1B25012400200090234602460146B7
:1099E0000190284602F070FE00BF7CBD7CB50446A5
:1099F000A1786A460D4803F08BF90546002D13D176
:109A000061781C2251430A4A88181C231A46694669
:109A100003F0BAFA0748807A800007490A582146BD
:109A200068469047054600BF7CBD0000A820002086
:109A3000BC2500200826002030E30100F8B50646CA
:109A40000820009001236A4621493046AADF0446D7
:109A5000204800688047B12044DF044600BF254607
:109A6000002D06D000BF002211462846FEF7ECFF6D
:109A700000BF00BF11DF044600BF2546002D06D001
:109A800000BF002211462846FEF7DEFF00BF00BFE0
:109A90001149486913DF044600BF2546002D06D052
:109AA00000BF002211462846FEF7CEFF00BF00BFD0
:109AB000304600F095FD162001218140074A1160D3
:109AC00000BF02F0B3FA0449486900F009F8F8BD94
:109AD00098270020082100200010001080E200E0FC
:109AE00010B504462046FEF715FB10BD0146880060
:109AF000014A1058704700002C26002001460148FA
:109B0000405670474C260020F0B58FB007460D46F2
:109B100014461E4600BF002D01D0012000E00020A9
:109B200000900098002806D100BF00221146104680
:109B3000FEF78AFF00BF00BF00BF002C01DD01203F
:109B400000E0002000900098002806D100BF00220D
:109B500011461046FEF778FF00BF00BF1C2107A882
:109B6000FEF751FB6946087F02218843801C694645
:109B70000877002008900A900B900C900D9000BF81
:109B8000012108A881766846078700BF0020019060
:109B90003178684601717178417180790621884376
:109BA000811C684681718079082188430146684696
:109BB00081718079102188430146684681718079DE
:109BC0004108490068468171142102A8FEF71BFB79
:109BD0000EA8029001A803906846048200214182E9
:109BE0008482069502AA07A902480088149BA2DF76
:109BF0000FB0F0BD5E200020F0B587B03E48007881
:109C0000142148433C49091D4418E7680C21A06809
:109C100048433A494018008906900C21A0684843FF
:109C200036494018408905900C21A06848433349C3
:109C300040184068049003F05DF9014602903846F0
:109C4000FEF79EFA002901D1012000E000200390D8
:109C5000059906984843049946186088C019A18858
:109C600045180020264908600398002804D003F016
:109C700041F9618888420AD00398002804D0B5428F
:109C800002D1A088002802D0A06802280CD103F0DD
:109C900031F9014602903846FEF772FA1949086018
:109CA000032003F047FD24E003F024F90190A1888C
:109CB000C8190199FEF764FA88081349086003F08F
:109CC00019F9014601902846FEF75AFA002901D1F8
:109CD000012000E000200290B54206D00298002842
:109CE00003D1B1B2A8B203F09FFF022003F022FD1E
:109CF00000BF07B0F0BD00008C26002058270020D0
:109D0000CC200020D0200020C820002010B508481A
:109D10000078142148430649091D44182078042876
:109D200002D000F0A5F801E003F0A0FE10BD000095
:109D30008C26002010B50F480078142148430D49A7
:109D4000091D441860880C4908602078012804D057
:109D5000032805D0042809D105E003F087FE06E0BA
:109D6000FFF74AFF03E004F0A6F900E000BF00BFE0
:109D700010BD00008C260020DC20002010B5034818
:109D80004078002801D0FFF7D5FF10BD8C260020B9
:109D90000023142141430C4A535414214143891890
:109DA0004B8001231421414389188B600023142127
:109DB00041438918CB601421414389180B61142158
:109DC000414389188B80704790260020FFB581B0F1
:109DD000064617461C4840780A2830D01A480078B2
:109DE0001949497844180A2C00D30A3C14206043CE
:109DF0001549091D0E5414206043401807611420B2
:109E000060434118029805C8CA6088601421614304
:109E10000D4A121D8918049848801421614389183D
:109E20000A988880101F4078401C111F487007480E
:109E30000078002801D1FFF77DFF002500E0042510
:109E4000284605B0F0BD00008C260020C42000206C
:109E500010B50020054908704870002403E0204632
:109E6000FFF796FF641C0A2CF9D310BD8C26002046
:109E700010B50848007814225043064A121D811874
:109E80000020FEF70BFE00F007F8002003F052FC64
:109E900010BD00008C26002010B509490878FFF796
:109EA00077FF07484078401E05494870084600780B
:109EB000401CC0B208700A2801D10020087010BDF3
:109EC0008C260020FEB51F480068002836D01D48AB
:109ED0000068056803F0A4FA01901B480468214655
:109EE000019803F0CDFEC61C18480078002801D167
:109EF00003F0A8FAAE4201D2284600E03046041929
:109F00002402240A204603F085FA03F089FA00901F
:109F10000199009803F0B4FEC71C2046019903F094
:109F2000AFFE874209D903F07BFA074603F072FAC5
:109F30002F20FEF7DFF803F0FFFF01E003F0A0FAA7
:109F4000FEBD0000EC200020F020002004210020B5
:109F500001460888062808DB08881922D2019042A9
:109F600005DD0888104A904201D0072070474888D4
:109F7000062808DB48881922D201904205DD48886E
:109F8000094A904201D00720F0E70888064A90422B
:109F900008D04888904205D008884A88904201DD60
:109FA0000720E3E70020E1E7FFFF0000FFB581B0F5
:109FB00006460D4614462088801D0499884202D921
:109FC0000C2005B0F0BD3046FFF7C2FF0746002F5A
:109FD00001D03846F5E70520218868542088401CC8
:109FE00020801220218868542088401C20802288EC
:109FF0005119308804F04DF82188401820802288BB
:10A000005119708804F045F82188401820800020FC
:10A01000D7E710B5044600BF002211462046FEF7E0
:10A0200013FD00BF10BD000030B587B01C2168468D
:10A03000FEF7E9F8002000900520C00301900F20F2
:10A0400000040290032168460173002101740B484B
:10A0500005900B4806906846FFF7D2F9044600BF0A
:10A060002546002D06D000BF002211462846FEF7E7
:10A07000EBFC00BF00BF07B030BD00007DC8010091
:10A0800013A0010038B51F4802F00EF8002829D1AE
:10A090001D48007800280AD01C484069002820D0BC
:10A0A00000200090194841696846884719E018481F
:10A0B0000078002802D11548456801E013488568FA
:10A0C0000022294613480068FEF78EFD0446002C46
:10A0D00007D00E488069002803D00C4881692046CB
:10A0E00088470AE009484069002806D0012000900E
:10A0F000064841696846884700BF00200249087049
:10A1000038BD00004C20002054200020A024002056
:10A11000482000200CE3010070B503460C460820DF
:10A12000002115E00C254D430B4EAD19AD7A2540AD
:10A13000002D0CD0094DAB4205D00C254D43AD1977
:10A140002D899D4202D11160002003E00520491CA9
:10A150000029E7D000BF70BDFC250020FFFF0000F4
:10A1600010B5044601210C2060430A4A8018817210
:10A17000891E0C20604380180181FF210C20604360
:10A180008018C1720C21614388180721FEF73BF843
:10A1900010BD0000FC25002010B514484068C10522
:10A1A000C90D002920D00A46103A50B200280DDA15
:10A1B0000E4B1C330407240F083CA408A4001B59B1
:10A1C0008407E40EE3401B069B0F0BE0084B0324BF
:10A1D00024021B198408A4001B598407E40EE340E1
:10A1E0001B069B0FD8B210BD0420FCE700ED00E079
:10A1F00000E100E010B51C48006808210840002874
:10A200002FD11A480068401C184908601848006897
:10A21000002803D0042003F091FC24E001F0A8FF03
:10A22000002803D0022003F089FC1CE011480068DC
:10A23000002813D00C480078C007C00F002809D1AF
:10A24000094800680121084307490860002003F01D
:10A2500075FC08E0032003F071FC04E003F042FC0D
:10A2600001E003F04FFC10BDE0200020D0200020D2
:10A27000C8200020CC20002010B50C480068082120
:10A28000084000280FD10948006802210840002832
:10A2900005D00648006801210843044908600220EF
:10A2A00003F04CFC01E003F02DFC10BDE020002089
:10A2B000FEB504460E46A1786A46284802F028FDFD
:10A2C0000546002D49D160780C21484324494018A7
:10A2D000807A40210840402801D0022E01D1214F30
:10A2E00004E0012E01D1204F00E0204FA0781C2275
:10A2F00050431F4A811800231C226846B847054670
:10A30000002D1AD1022E18D060780C214843144930
:10A310004018807A4021884361780C225143104ACA
:10A320008918887260781C225043124A81181C23B5
:10A330001A466846B847054600BF022E0DD0207861
:10A340000C2148430C494018807A80000B490A5878
:10A35000214668469047054600BFFEBDA820002064
:10A36000FC250020D1D20100A5D1010001DA0100B5
:10A37000F8240020BC2500200826002020E301004E
:10A38000F8B505460E461B4F00242EE01C20604306
:10A3900019494018807EFF2826D13078022814D031
:10A3A0001C2060434018807E022188431C216143A9
:10A3B000114A891888761C21614389180846103093
:10A3C00007223146FDF706FF0BE01C2060430A49D7
:10A3D0004018807E410849001C206043064A8018CE
:10A3E00081762C70002702E0641C072CCED300BFBE
:10A3F0003846F8BD43800000F8240020F8B5054633
:10A400000E4617460520009000241BE0002D06D1C3
:10A410001C2060430E494018008BB8420DD0002D1F
:10A420000FD01C2161430A4A8918084610300722C0
:10A430002946FDF7FAFE002803D134600020009081
:10A4400002E0641C072CE1D300BF0098F8BD0000B7
:10A45000F82400207CB50546A9B26A46084802F0F7
:10A4600057FC0446002C09D17421684602F0A2FC76
:10A470000446002C02D1284602F0A4FB20467CBDF5
:10A48000A8200020F8B507460D46144600BF264612
:10A49000002E06D000BF002211463046FEF7D4FA47
:10A4A00000BF00BF2878152802D13846FEF776FA9B
:10A4B0000020F8BD7FB50546039502F021FD044656
:10A4C00000BF2646002E06D000BF002211463046AF
:10A4D000FEF7BAFA00BF00BF03A800F0B5FF0446BC
:10A4E00000BF2646002E06D000BF0022114630468F
:10A4F000FEF7AAFA00BF00BF052101A80130FDF751
:10A5000082FE6846407941084900491C684641710D
:10A5100040790221884301466846417140791C21F7
:10A52000884301460C3168464171407920218843B7
:10A53000014668464171072181711021C1710B48A4
:10A5400000900121684601716946094801F084F9CB
:10A55000044600BF2646002E06D000BF002211464A
:10A560003046FEF771FA00BF00BF7FBD85A4010031
:10A570000220002031B50949684600F065FB044619
:10A5800000BF2546002D06D000BF002211462846F8
:10A59000FEF75AFA00BF00BF38BD00000C210020B2
:10A5A000F8B504460D462878002803D12088FFF727
:10A5B00045FA12E0032201212046FFF741F8064642
:10A5C00000BF3746002F06D000BF00221146384694
:10A5D000FEF73AFA00BF00BF00BF00BFF8BD0000A1
:10A5E00070B58AB00646002003903F49304600F01F
:10A5F000E7FE0446002C75D104A93B4800F06CFE30
:10A600000446002C4ED100BF2546002D06D000BFC9
:10A61000002211462846FEF717FA00BF00BF08982F
:10A620000146103107223148FDF7D4FD10222F4892
:10A63000C01D0899FDF7CEFD11222C481830049951
:10A64000FDF7C8FD0498014612310A2227482A3036
:10A65000FDF7C0FD254800DF044600BF2546002D5C
:10A6600006D000BF002211462846FEF7EDF900BFD4
:10A6700000BF012003900420019003A80290002055
:10A6800000906946184800F051FA044600BF25467C
:10A69000002D06D000BF002211462846FEF7D4F94F
:10A6A00000BF1FE01149104800F052FF044600BFF0
:10A6B0002546002D06D000BF002211462846FEF791
:10A6C000C3F900BF00BF094800DF044600BF2546AC
:10A6D000002D06D000BF002211462846FEF7B4F92F
:10A6E00000BF00BF0AB070BD0C210020642700200D
:10A6F00070470000014908607047000008210020F1
:10A7000010B58EB004461C2107A8FDF77CFD6846F5
:10A71000007F08218843411868460177007F102197
:10A720008843411868460177002008900A900B90F2
:10A730000C900D90A1796846817128498180002094
:10A74000009000BF68460078010909016846017061
:10A750000078F02188436946087000BF00BF684652
:10A76000407801090901491C684641704078F02190
:10A77000884310306946487000BF684680780621DB
:10A780008843811C6846817080780821884301468F
:10A79000684681708078102188434118684681702E
:10A7A000807841084900491C68468170142102A83C
:10A7B000FDF729FD01A8029068460390002101825F
:10A7C00041821721818200200690A0882346103301
:10A7D00002AA07A9A2DF0EB010BD000031150000CB
:10A7E00010B58EB004461C2107A8FDF70CFD684685
:10A7F000007F04218843011D6846017700200890EE
:10A800000A900B900C900D90A179684681712849AF
:10A8100081800020009000BF68460078010909018E
:10A82000684601700078F02188436946087000BFCF
:10A8300000BF6846407801090901491C684641701B
:10A840004078F021884310306946487000BF684660
:10A85000807806218843811C6846817080780821B1
:10A8600088430146684681708078102188430146FC
:10A8700068468170807841084900491C68468170AB
:10A88000142102A8FDF7BFFC01A8029068460390BE
:10A890000021018241821421818200200690A0883B
:10A8A0002346083302AA07A9A2DF0EB010BD00009C
:10A8B0003215000030B58FB004460D461C2108A8A3
:10A8C000FDF7A1FC08A8007802218843811C08A894
:10A8D0000170002009900B900C900D900E90A179C2
:10A8E00068468172284901810020019000BF6846B6
:10A8F000007901090901491C684601710079F021BC
:10A90000884310306946087100BF00BF684640792F
:10A9100001090901684641714079F021884369467F
:10A92000487100BF6846807906218843811C6846CB
:10A930008171807908218843014668468171807958
:10A940001021884301466846817180794108490099
:10A95000491C68468171142103A8FDF754FC02A824
:10A96000039001A804900221684681820021C182DF
:10A97000022101830795A0882346203303AA08A952
:10A98000A2DF0FB030BD0000341500003EB5044614
:10A9900000BF26480078002801D125483EBD00BFF1
:10A9A000002C02D12248801DF8E700BF2078012842
:10A9B00006DA20780C2148431E490858002801D1A6
:10A9C0001B48EBE700BF00BFA078072807DAA07894
:10A9D0001C21484318494018807EFF2802D11448A2
:10A9E0000830DBE700BFA1786A46144802F090F90E
:10A9F0000546002D17D160230422694602A802F003
:10AA0000C3FA05460298401C00280CD0602304229B
:10AA10000B49684602F05CFC0546002D03D1A17885
:10AA20008900084A50502846B8E70000B4200020AA
:10AA30000880000008260020F8240020A82000201C
:10AA400050E30100DC240020FEB504460D4600BFA3
:10AA500030480078002801D12F48FEBD00BF002CEF
:10AA600002D12D48801DF8E7002D02D12A48801D13
:10AA7000F3E700BF2078012806DA20780C2148434C
:10AA800026490858002801D12348E6E700BF00BF47
:10AA9000A078072807DAA0781C21484320494018ED
:10AAA000807EFF2802D11C480830D6E700BFA86886
:10AAB000002805D1A07880001A490858A86004E051
:10AAC000A1788900174AA8685050A1786A461648AC
:10AAD00002F01EF90646002E1AD1602304226946B0
:10AAE00002A802F051FA0646002E0FD10298401C2F
:10AAF00000280BD0642310226946A86802F044FAAB
:10AB00000646002E04D10298686001E0024E3836F5
:10AB10003046A2E7B420002008800000082600206C
:10AB2000F8240020DC240020A8200020FEB50446E4
:10AB30000D4600BF3B480078002801D13A48FEBDD1
:10AB400000BF002C02D13848801DF8E7002D02D14B
:10AB50003548801DF3E7A868002802D13248801DDF
:10AB6000EDE700BF2078012806DA20780C21484361
:10AB70002E490858002801D12B48E0E700BF00BF4C
:10AB8000A078072807DAA0781C21484328494018F4
:10AB9000807EFF2802D124480830D0E700BF00BFE4
:10ABA00060780C21484323494018807A08210840E6
:10ABB000082801D01C48C2E700BF6868042801D2F9
:10ABC0000720BCE71C4FA1786A461C4802F0A0F899
:10ABD0000646002E23D160230422694602A802F013
:10ABE000D3F90646002E04D10298401C002800D05C
:10ABF000134F60230422291D6846B8470646002EDD
:10AC00000DD1642310226846A96802F061FB064654
:10AC1000002E04D1A17889000A4AA8685050304615
:10AC20008DE70000B42000200880000008260020E6
:10AC3000F8240020FC250020A5D10100A820002038
:10AC4000D1D20100DC240020024600BF1148007868
:10AC5000002801D11048704700BF002902D10E48DA
:10AC6000801DF8E7002A02D10B48801DF3E700BFE2
:10AC70001078012806DA10780C235843074B18582F
:10AC8000002801D10448E6E700BF107808700020D2
:10AC9000E1E70000B4200020088000000826002022
:10ACA000F0B58FB00446FF200D90002600200790DD
:10ACB00000BFFE480078002801D10FB0F0BD00BFF2
:10ACC00000BFFB480068002800D1F6E700BF0CA8D1
:10ACD00000F0ACFB054600BF2F46002F06D000BF9A
:10ACE000002211463846FDF7AFFE00BF00BF00202E
:10ACF00008900025201D0A902A2168468185FF21A1
:10AD000008A881740021017400200E90208810286A
:10AD100013D0A0880EAA0221FFF7FEF90546002DE8
:10AD20000BD10C210E984843E2494018C17A08A87B
:10AD300081740E98C1B208A84174208817287BD06E
:10AD400008DC10280DD011287CD0132876D01428C8
:10AD500075D1B5E0182873D01C2872D05228F7D1CD
:10AD600080E20EAF3A460121D348FFF7D5F90090B3
:10AD70000098002807D102210C2238685043CD4AA0
:10AD80008018817201E00420009000980546002D93
:10AD900051D10126112108A801710E98C1B208A84D
:10ADA0004174A1880C220E985043C24A8018018138
:10ADB00002210C220E985043BE4A801881720C2248
:10ADC0000E995143BB4A88180722A11DFDF702FACC
:10ADD000207D304000280AD0207D4008B749085C1B
:10ADE000FF280AD0207D4008085C0D9005E0B24A9B
:10ADF0000DA9A01DFFF702FB0546002D1BD10D98E4
:10AE0000C1B20C220E985043AA4A8018C1720C217C
:10AE10000E98484311464018807A082108430C22B6
:10AE20000E995143A34A8918887208A90D9888740D
:10AE30000CA8FEF7DBFD24E2FAE003E085E01FE268
:10AE4000ADE118E20C210E9848439A494018807AE7
:10AE5000022188430C220E995143964A8918887220
:10AE60000C210E98484311464018807A082108406A
:10AE700008280ED10C210E98484311464018807ABC
:10AE80008021084080280FD100210CA8FFF710FA7C
:10AE90000AE008A8807CFF2806D008A9887C01F079
:10AEA00091FEFF2008A9887410210C220E985043AF
:10AEB000804A801881720126122008A90871E0E1F9
:10AEC0000C210E9848437B494018C07AFF2823D1B3
:10AED000E2890DA90020FFF791FA0546002D1BD14C
:10AEE0000D98C1B20C220E985043724A8018C1725C
:10AEF0000C210E98484311464018807A08210843D7
:10AF00000C220E9951436B4A8918887208A90D9832
:10AF100088740CA8FEF76AFD0C210E984843654919
:10AF20004018C07AFF2805D01C210E984843644978
:10AF3000401807901C230E995943624BCA18A088E9
:10AF40000023079982DF05469BE1132008A90871B9
:10AF50000C210E98484357494018807A0421084331
:10AF60000C220E995143534A8918887201260C21EC
:10AF70000E98484311464018C07AFF2819D10C2278
:10AF80000E9850430A4681180DA8FFF7F9F90546B7
:10AF9000002D0BD108A90D9888740D98C1B20C2210
:10AFA0000E985043434A8018C1721DE0089501264F
:10AFB0001AE0162008A9087124220E995143424A2A
:10AFC0008918084608301A21FDF71DF90C210E9842
:10AFD000484338494018807A402108430C220E9992
:10AFE0005143344A89188872002004900C210E982D
:10AFF000484330494018C07A1C2148433149411820
:10B000000591002106911C210E9848432C494018B7
:10B010000190002002900390A08801AB244A121DE9
:10B0200000217FDF0546002D01D00895002628E18C
:10B030001F48407A400840001D4948720C210E9874
:10B0400048431C494018807A042188430C220E99F9
:10B050005143184A89188872142008A908710126DA
:10B06000A07900280AD00C220E995143114A891860
:10B07000C87AFFF7EFF9A07908908FE0E0794007F0
:10B08000C00F00287ED008A8807CFF287AD00C2131
:10B090000E98484307494018807A082108430C223B
:10B0A0000E995143034A891888720FE0B42000209A
:10B0B00008260020FC250020FFFF0000B52000200E
:10B0C000BC250020F8240020D8250020E07A800745
:10B0D000C00F00280FD008A8807C1C214843774966
:10B0E0004018807E4108490008A8807C1C225043FB
:10B0F000724A801881760C210E9848437049401896
:10B10000C07AFF284AD00C210E9848436C49085C4D
:10B11000022820D00C230E9A5A430B46D11808AAB5
:10B12000927C1C235A43654BD218104610300722DC
:10B13000FDF750F808A8807C1C2148435F4940185F
:10B14000807E0221884308A9897C1C2251435B4AE6
:10B15000891888761EE01C210E98484359494018EA
:10B16000418A08A8807C1C225043544A80180183DD
:10B1700008A8807C1C21484311464018807E410865
:10B18000490000E00AE008A8807C1C2250434B4A9A
:10B190008018817601210CA8FFF78AF871E0A07968
:10B1A000000901283DD1A0790007000F012838D1FE
:10B1B0000C210E98484342494018807A08210840E3
:10B1C00008282ED124220E9951433F4A8918081885
:10B1D0001A21FDF718F8162008A908710C210E98FD
:10B1E000484337494018807A202108430C220E99A1
:10B1F0005143334A891888720C210E9848431146EE
:10B200004018807A402108430C220E9951432C4A61
:10B21000891888722D48407A022108432B494872C8
:10B220001CE00C210E98484325494018807A802163
:10B2300008430C220E995143214A8918887215201F
:10B2400008A908712148807A8000214A11580CA869
:10B2500088470546002D01D01E4808900020089020
:10B2600001260EE01948807A8000194A11580CA86E
:10B270008847089005E0132008A90871012600E01E
:10B2800000BF00BF002E16D009A90CA8089AFDF730
:10B29000F7FB08A8007912280DD100BF0C210E98E9
:10B2A000484307494018807A012802D00E98FEF7DB
:10B2B00057FF00BF00BF00BFFFE40000F8240020DC
:10B2C000FC250020BC250020D825002008260020D1
:10B2D00040E301004180000070B58AB005460C468D
:10B2E00000BF31480078002802D130480AB070BD54
:10B2F00000BF002D02D12D48801DF7E7002C02D1A0
:10B300002A48801DF2E700BF2878012806DA28784D
:10B310000C21484326490858002801D12348E5E775
:10B3200000BF00BFA878072807DAA8781C21484387
:10B3300020494018807EFF2802D11C480830D5E7FC
:10B3400000BF00BF0020E060A8781C2148431949D5
:10B350004118216100216161174860600020A060F0
:10B3600003A82060A97801AA144801F0D1FC064680
:10B37000002E17D11C231A4601A903A801F004FED0
:10B380000646002E0ED1E060A8781C2148430949EA
:10B390004118216100216161074860600020A060C0
:10B3A00003A820603046A1E7B420002008800000F8
:10B3B00008260020F824002014260020A8200020C1
:10B3C00030B50446002901D1154830BD00BF0878CA
:10B3D000012806DA08780C256843124D2858002801
:10B3E00002D10F48801FF0E700BFFF2088700523BF
:10B3F00000220FE00C2050430B4D40190089A04261
:10B4000007D14A700C2050434019C07A887000233D
:10B4100002E0521C002AEDD000BF1846D5E700001C
:10B420000E80000008260020FC250020014600298F
:10B4300001D104487047FF20087048708870C870B8
:10B440000020F7E70E8000007FB50646002E02D1EF
:10B45000374804B070BD00240FE000BF00210C206D
:10B460006043344A11500C206043801841720C2014
:10B4700060438018817200BF641C002CEDD0002452
:10B4800003E02046FEF76CFE641C002CF9D024215A
:10B490002948FCF7B8FE002406E0204601F092FBA4
:10B4A000FF2026490855641C072CF6D374216846F2
:10B4B00081810721C18122480290224902A801F01E
:10B4C000E1FD0546002D30D101201F49087030787C
:10B4D000002821D100241CE0A1B26A46194801F0DD
:10B4E00017FC0546002D0FD11C216143174A88180F
:10B4F00000231C22694601F047FD0546002D07D0B8
:10B5000000201149087006E000200F49087002E091
:10B51000641C072CE0D308E06A469089D289504326
:10B5200081B2084801F046FC0546284691E7000034
:10B530000E80000008260020D8250020B52000201D
:10B5400015B60100A8200020B4200020F824002017
:10B5500070B504460E4600BF29480078002801D186
:10B56000284870BD00BF002C02D12648801DF8E796
:10B57000002E02D12348801DF3E700BF2078012868
:10B5800006DA20780C2148431F490858002801D1C9
:10B590001C48E6E700BF1B4DED1EA078FF2817D121
:10B5A0006078FF282AD060780C214843174940185A
:10B5B000807A02210840022820D160780C22504372
:10B5C000124A811807223046FCF704FE002515E0D8
:10B5D000A0781C2148430E494018807E0221084073
:10B5E00000280BD1A0781C225043094A801801463C
:10B5F000103107223046FCF7EDFD00252846B0E764
:10B60000B42000200880000008260020FC2500202F
:10B61000F8240020FFB591B01D4600BF84480068A3
:10B62000002801D115B0F0BD00BF1A98742800D9C8
:10B63000F8E7012007900DA8FFF7F8FE064600BFC7
:10B640003746002F06D000BF002211463846FDF7CE
:10B65000FBF900BF00BF002108A8017501760C9519
:10B660001A980B90002712E0B9B208AA714801F0AD
:10B670004FFB0646002E09D1082208A91198FCF7B5
:10B68000D4FD002802D108A98F7502E07F1C072F86
:10B69000EAD300BF08A8807DFF2877D0129803283E
:10B6A0000AD11A98742803D1202008A9087698E0B6
:10B6B000402008A9087694E05F49681A1C21FCF72D
:10B6C0005FFD0446072C1DD20AA80F90139800288E
:10B6D00010D108A9887D01218140584A1268114083
:10B6E000002901D0012100E00021002902D1002021
:10B6F000079076E008A9887D02F0E2FC202008A9E6
:10B7000008766EE04E49681A1C21FCF739FD0446A4
:10B71000002C1AD10AA80F90202108A801764475A0
:10B7200000200490474905911C206043444940187B
:10B73000019008A8807D1C2148433F494018029091
:10B7400001A80C9018200B904BE03F49681A242167
:10B75000FCF716FD0446002C19D1302108A801760B
:10B7600044750121C1750C20604338494018807A26
:10B7700002210840022834D008A9497D24225143DF
:10B78000314A88182421FCF73EFD2AE04DE00020D4
:10B790000790402008A908762D48854204D103204F
:10B7A0001290012007901CE008A8807D80002949A4
:10B7B0000858A84215D1012007900AA80F90002030
:10B7C0000CE008A98A7D0C214143204BC918C97A95
:10B7D0008A4202D108AA507502E0401C0028F0D02D
:10B7E00000BF0798012820D11298032806D108A984
:10B7F000087E0321084308A908760FE01298022862
:10B8000006D108A9087E0121084308A9087605E0A9
:10B8100008A9087E0221084308A908760AA80F9003
:10B820000EA90DA8139AFDF72BF900BFFAE6000048
:10B8300008260020A8200020F8240020B0200020A6
:10B84000BC25002014260020D8250020FC2500203F
:10B8500050E30100DC24002070B505460C4600BF13
:10B8600029480078002801D1284870BD00BF002D6C
:10B8700002D12648801DF8E7002C02D12348801D04
:10B88000F3E72068002802D12048801DEDE720481A
:10B890000068002834D11E49206808600522611D17
:10B8A0001B48001DFCF796FC207919498872084650
:10B8B000007A4008400008720846007A0221884356
:10B8C000801C134908720846007A042188431049F5
:10B8D00008720846C07940084000401CC8710846FC
:10B8E000C07902218843801C0949C8710846C07983
:10B8F000042188430649C87100202870002601E011
:10B90000024E361F3046B0E7B42000200880000009
:10B9100008260020014614480078144A1278904204
:10B920001DD011480078401C0F4A10701046007856
:10B93000022801D1002010700B48007880000C4ACA
:10B94000105808600B4A086812688018094A10608D
:10B95000104600680002000A1060012070470020B5
:10B96000086000BFFAE70000FC200020FD20002056
:10B97000F4200020F020002010B50D4800680821B8
:10B980000840002810D10B480068401C0949086095
:10B9900000F0EEFB002802D1FEF7B8F906E00648F9
:10B9A000007801F0C7FE01E000F0CAFD10BD000004
:10B9B000E0200020D0200020C4200020F0B5034665
:10B9C000002420E0134E306806689E4203D90668C2
:10B9D000F61A06601BE006689B1B066834190026F1
:10B9E00006600C4E35680B4FC6693E60C668002E77
:10B9F00008D00E193602360A4660C6688660166898
:10BA0000C661156000BF034800680028DAD100BF96
:10BA1000F0BD0000EC20002030B504461088C01CAA
:10BA2000984201D90C2030BD022015884855108855
:10BA3000401C10800120158848551088401C10803B
:10BA400015884C551088401C10800020EBE7000042
:10BA500010B50446002C02D0112C08D100E00AE0F9
:10BA600006480068082108430449086003E02046AE
:10BA7000FDF72CF800BF00BF10BD0000E020002043
:10BA800010B50C480068401C0A49086003280DD016
:10BA900009480078022804D00748007801F04AFEDF
:10BAA00007E00648007802F049F802E00D20FDF7B3
:10BAB0000DF810BDD4200020C4200020C520002097
:10BAC00010B50A480078012804D0022808D00328BD
:10BAD00009D102E001F0D0FF06E0FFF74DFF03E0DF
:10BAE00002F020F800E000BF00BF10BDC42000201D
:10BAF00070B50446204628DF0546FFF7A9FF70BD54
:10BB0000F8B504460D46164632462946204629DF3A
:10BB10000746FFF79DFFF8BD3EB500BF68460078B9
:10BB200001090901491C009168460078F021884309
:10BB30001030009000BF072217A168467CDF044642
:10BB400000BF2546002D06D000BF00221146284622
:10BB5000FCF77AFF00BF00BF002001900290FF2198
:10BB60004131684681804121C900C18000210181A5
:10BB7000FF219131418101A87ADF044600BF2546AB
:10BB8000002D06D000BF002211462846FCF75CFFBE
:10BB900000BF00BF3EBD0000426C75436869700085
:10BBA00001460020704702460020704702460020F0
:10BBB00070470000F8B505460027002000900026D9
:10BBC000687824214843334940184068002827D02A
:10BBD00068780C21484330494018807A8021084019
:10BBE00080281DD168780C2148432B494018807A61
:10BBF00040210840402813D0687824214843254933
:10BC000040180746083768782421484321494018DE
:10BC1000808880B200906878242148431D490E58DE
:10BC200069780C2251431C4A8918088933463946E1
:10BC3000009AA9DF04460B2C0BD1012669780C224F
:10BC40005143154A8918088933463946009AA9DFB5
:10BC50000446002C00D0114C012E18D169780C221A
:10BC600051430D4A891808890D4A0C21A7DF044663
:10BC7000002C0CD00B48844208D0082C06D0801C25
:10BC8000844203D0112C01D0002400E0034C204654
:10BC9000F8BD0000D8250020FC25002041800000D0
:10BCA000FFFF00000230000070B505460C466178C9
:10BCB000242251430D4A881838232422294601F0B2
:10BCC00063F90646002E0FD16078242148430749C6
:10BCD00040184068401C002806D1002160782422CA
:10BCE0005043024A80184160304670BDD82500207C
:10BCF000F3B589B00C4603271A20089061780C220E
:10BD000051432E4A891808893B4608AA01A9AADF8F
:10BD10000646002E4FD1617824225143284A8918C3
:10BD20000846083069460A8C01A9FCF77EFA00280B
:10BD300012D160780C21484320494018807A0221B2
:10BD40000840022837D06178242251431C4A8818C1
:10BD50002421FCF758FA2EE0607824214843184942
:10BD600040184068002801D0164D00E0164D60785C
:10BD70002421484312490F506946098C60782422D7
:10BD800050430F4A801841606178242251430C4A85
:10BD900089180846083069460A8C01A9FCF71AFA86
:10BDA000607824225043064A8118382324220998B7
:10BDB000A847064600BF00200BB0F0BDFC250020C0
:10BDC000D8250020D1D20100A5D1010070B50546CB
:10BDD0002846FFF7EFFE0446002C02D100BF00BF4B
:10BDE0000446204670BD70B505460E4631462846CD
:10BDF000FFF75AFF0446002C02D100BF00BF0446E3
:10BE0000204670BD70B505460E4631462846FFF700
:10BE10006FFF0446002C02D100BF00BF044620463D
:10BE200070BD30B58FB004460D461C2108A8FCF744
:10BE3000EAF908A8007808218843411808A8017089
:10BE4000007804218843011D08A801700020099092
:10BE50000B900C900D900E90217868468172022113
:10BE600001810020019000BF6846007901090901A5
:10BE7000491C684601710079F021884310306946F9
:10BE8000087100BF00BF6846407901090901491CDB
:10BE9000684641714079F021884310306946487105
:10BEA00000BF6846807906218843811C68468171FD
:10BEB0008079082188430146684681718079102184
:10BEC0008843014668468171807941084900491CD0
:10BED00068468171142103A8FCF795F902A8039024
:10BEE00001A804900121684681820021C1820221BB
:10BEF00001836088231D03AA08A9A2DF0FB030BD0B
:10BF000010B51848006808210840002826D100F024
:10BF10005BF900280CD00020134908601148006824
:10BF2000012108430F490860002001F007FE17E0D7
:10BF300000F01EF9002806D000200B4908600220FE
:10BF400001F0FCFD0CE009480068002803D0032044
:10BF500001F0F4FD04E001F0C5FD01E001F0D2FDC7
:10BF600010BD0000E0200020C8200020CC200020D0
:10BF7000F8B529480078002800D1F8BD27480068A6
:10BF8000002801D1012000E0002005462448006877
:10BF9000002801D1012000E00020064600BF002D4E
:10BFA00014D1684651DF0446052C01D101250CE06F
:10BFB000002C06D000BF002211462046FCF744FDAD
:10BFC00003E0164900980968884700BF002E1AD17F
:10BFD00014480088009069461348006861DF0446F1
:10BFE000052C01D101260DE0002C06D000BF002257
:10BFF00011462046FCF728FD04E00B48006808497C
:10C000000968884700BF002D02D0002E00D000E054
:10C01000C5E700BF00BFB0E71421002024210020A5
:10C02000202100201C2100201821002010B50B49E0
:10C030000A6800200FE0012181401140002909D049
:10C0400041B2CC06E40E0123A340044C80342360AB
:10C0500000BF00BF401C2028EDD310BD00E100E070
:10C06000FEB5044600200090019002216846018040
:10C070000021418002A80190A18A20886A46A5DF9C
:10C080000546002D07D0E06A002802D02846E16A64
:10C0900088470020FEBD02AE304601F0F4FF07469F
:10C0A000F807C00F00BFF5E701464888064A128826
:10C0B000904206DB4888044A5288904201DC012005
:10C0C00070470020FCE70000402000200C48008C56
:10C0D000C0B2012812D10A48808C0007000F002846
:10C0E0000CD10748806AF0210840402806D1044856
:10C0F000C06A0840002801D1012070470020FCE7F9
:10C10000C00F00F01948008CC0B201282CD117488C
:10C11000808C0007000F002826D11448806AF02187
:10C120000840002806D11148C06A0840002801D103
:10C13000012070470D48806AF0210840102806D180
:10C140000A48C06A0840002801D10120F1E70748E9
:10C15000806AF0210840302806D10448C06A0840AF
:10C16000002801D10120E4E70020E2E7C00F00F041
:10C17000F8B512480078142148431049091D4518A4
:10C18000EF6800F0B7FE00906988C919AA8889187D
:10C19000481E0099FBF7F4FF064609480068B042C4
:10C1A00007D307480068B04205D106480068002858
:10C1B00001D1012400E000242046F8BD8C26002097
:10C1C000D0200020CC200020F8B5104800781421A1
:10C1D00048430E49091D4518EE6800F08BFE00909B
:10C1E00069888919AA888918481E0099FBF7C8FF31
:10C1F000074607480068002805D006480068B8428E
:10C2000001D1012400E000242046F8BD8C26002046
:10C21000CC200020D020002001468807800F002875
:10C2200001D1012070470020FCE730B5044610889A
:10C23000C01C984201D90C2030BD022015884855F9
:10C240001088401C10801C20158848551088401C00
:10C250001080012C06D0022C08D0032C0AD0042C0C
:10C2600010D10BE00020158848550DE001201588FD
:10C27000485509E002201588485505E00320158837
:10C28000485501E00720D7E700BF1088401C108008
:10C290000020D1E7F8B521480068009020480678D2
:10C2A0002EE0F0001F4909684418257824E0182082
:10C2B000684361680F18681CC5B2A078A84200D115
:10C2C00000253878022802D0032812D103E07868CC
:10C2D00001F064FD0EE007E01049086800210174D8
:10C2E0000E4AC169116000BF0C4800680028F3D1F4
:10C2F00000E000BF00BF00BF6078A842D7D100BFF8
:10C300003046711ECEB20028CBD104480168009897
:10C31000814201D00120F8BD0020FCE7EC20002084
:10C32000E4200020E8200020FEB506463C480068D6
:10C3300001903C480078009063E00098C0003A49C2
:10C340000968451856E0002E02D03446E66924E01C
:10C350002978182359436A6850182978491C29708C
:10C360002978AA78914201D1002129704468017886
:10C37000012902D1217C002900D03BE08168616065
:10C38000C168A1600169E1604169A161274909783B
:10C39000002901D00021616000BF2549606809685B
:10C3A000401A0002000A2349884208D220496068E6
:10C3B000096801F065FCA168401820600FE01C4886
:10C3C0006168006801F05CFC0746A068B84203D9C8
:10C3D000A068C01B206001E00020206000BF00209A
:10C3E0006060A060012020740020E061204601F020
:10C3F0009FFC00BF002EA6D1287869788842A2D180
:10C4000000BF0098411EC9B20091002895D1044890
:10C4100001680198814201D00120FEBD0020FCE7A7
:10C42000EC200020E4200020E8200020052100204E
:10C43000F0200020FFFF7F00FDF79AFA01F082FD57
:10C44000FDF744FA3046FEF735F8FFF765FBFCF7D9
:10C450005DFA01F0D9F8FDF7E7FDFCF735FC0320A4
:10C46000FCF7FCFD044600BF2546002D06D000BFAA
:10C47000002211462846FCF7E7FA00BF00BFFBF791
:10C48000D7FF00202D49087000BF2C4800780028F5
:10C4900034D0012828D002280AD0032849D100F03E
:10C4A0005DF9002000F05AF9112000F04FF940E04A
:10C4B00003202249087000F051F9002000F04EF9E5
:10C4C000112000F043F90320FCF7C8FD044600BF2B
:10C4D0002546002D06D000BF002211462846FCF755
:10C4E000B3FA00BF00BF24E0032000F02FF90020C2
:10C4F00000F02CF9112000F031F91AE001200F4969
:10C500000870032000F022F9002000F01FF911202C
:10C5100000F024F974DF044600BF2546002D06D044
:10C5200000BF002211462846FCF78EFA00BF00BF6C
:10C5300000BF00BF00F0C3FBA7E7000014200020ED
:10C5400010B505480068082188430349086003487E
:10C55000007801F0EFF810BDE0200020C42000209A
:10C56000FFB581B005460E461446A888871C208872
:10C57000801CC1190498814202D90C2005B0F0BD7D
:10C58000FE2F01D90C20F9E7781C218870542088EF
:10C59000401C2080FF20218870542088401C20806F
:10C5A00022889119288801F074FD21884018208084
:10C5B000A88800280EDDA868002801D10720DDE743
:10C5C000AA8823889819A968FBF704FE2088A988FF
:10C5D000401820800020D1E7FFB583B005460F4604
:10C5E00014462878012805D16878002802D1072050
:10C5F00007B0F0BD2088801C0699884209D82878A9
:10C60000012808D12088801C697841180698814249
:10C6100001D90C20ECE721880698401A801E86B2CA
:10C6200001962188891CC81901A97DDF0290029812
:10C63000002801D00298DBE72878022806D1684656
:10C640008088B04202DC092000900BE008200090B6
:10C650002878012805D16878B04202DC687801901A
:10C6600000E0019668468088FE2801D90C20BFE7CB
:10C6700068468088401C218878542088401C20808F
:10C680002188009878542088401C208021886846A2
:10C690008088081820800020AAE701460020704703
:10C6A00002460020704702460020704701B505E0B1
:10C6B0000098401E00900348FBF70CFD00980028EE
:10C6C000F6D108BDE7030000F0B5059C55000D4309
:10C6D0009E00354326023543069E36043543052623
:10C6E000360707273F02F6198700F551F0BD1CB544
:10C6F0000446002000900346012211460190204686
:10C70000FFF7E2FF1CBD10B50522120707231B022D
:10C71000D2188300D25803231B049A4305231B0716
:10C72000072424021B1984001A510522120707232B
:10C730001B02D2188300D2580B041A4305231B078F
:10C74000072424021B1984001A5110BD01218140C5
:10C75000014AD1607047000000050050012181406E
:10C76000014A9160704700000005005001460148F1
:10C77000081870470060004010B504462046FFF7D7
:10C78000F5FF0021016010BD10B504462046FFF7FB
:10C79000EDFF0068012800D110BD0020FCE7014634
:10C7A0000922D2018A1810680922D2018A18106061
:10C7B000704702465058002801D0012070470020E1
:10C7C000FCE7002242507047032212028218916057
:10C7D00070470246032000021018406808400028F5
:10C7E00001D0012070470020FCE701224250704731
:10C7F00010B50446002C02D0032C03D103E000F056
:10C8000089FF00E000BF00BF10BD0000F8B50C4676
:10C810001746022F00DAF8BD2578607800900026D0
:10C8200011E00B48805DA8420CD12846FFF75FFF5E
:10C830000098002803D02846FFF790FF02E0284622
:10C84000FFF784FF761C0C2EEBD300BFE3E700005C
:10C85000082000200188102902D0112909D103E005
:10C860008188054A118005E00021C943024A1180F0
:10C8700000E000BF00BF70470020002070B50546F3
:10C880002878002810D13B210848008876DF04462C
:10C8900000BF2646002E06D000BF002211463046BB
:10C8A000FCF7D2F800BF00BF70BD000000200020E0
:10C8B00010B504460822A11D0248FBF78BFCFDF7CA
:10C8C000E1FB10BD4C2000208A8882817047000067
:10C8D00010B50446A088094908800822214616316F
:10C8E0000748FBF777FC0020064908700648C08916
:10C8F000002801D1FDF7C6FB10BD00004A20002032
:10C900004C20002048200020A02400208A8802809B
:10C91000704770B588B004460D4602206946087419
:10C920002046FFF79DFB002808D1FF20FE30694616
:10C930008882208804A9A8DF08B070BD002069465D
:10C940008882208804A9A8DF0646002E01D0304640
:10C95000F2E700BFA87E0300FBF7D2FE0979061DAF
:10C96000343C444C71547900002069460871288B8E
:10C97000022805DAA97E06222046FCF761FEDBE7E5
:10C98000012101A8017228461B30029001A920460E
:10C99000A26A904761E0012069460871288B02284D
:10C9A00005DAA97E06222046FCF74AFEC4E70121EB
:10C9B00001A8017228461B30029001A92046A26AF4
:10C9C00090474AE002206946087101A92046A26A00
:10C9D000904742E003206946087101A92046A26AF7
:10C9E00090473AE004206946087101A92046A26AEE
:10C9F000904732E005206946087101A92046A26AE5
:10CA000090472AE0288B032805DA032208212046D4
:10CA1000FCF716FE90E728461B3001F034FB694610
:10CA200008810889002802D10720087102E0062049
:10CA30006946087101A92046A26A90470DE00920C5
:10CA40006946087101A92046A26A904705E0A97EBF
:10CA500003222046FCF7F4FD6EE700BF00206BE7E1
:10CA60000022D2438281704770B505460020C04342
:10CA70000A49088000200A4908700A480068FCF743
:10CA8000DFF80446002C07D007488069002803D04F
:10CA9000054881692046884770BD00004A20002073
:10CAA000482000200CE30100A02400200022D243F3
:10CAB00002807047F8B505460C46A61D307802285E
:10CAC0001AD17088298A884216D1A07A042813D0F6
:10CAD000A07A062810D0A07A05280DD0B11C2846CF
:10CAE000FFF717FF0746002F05D0E86A002802D09D
:10CAF0003846E96A884700BFF8BD70B504460E465F
:10CB0000B51D2888A188884208D12069002805D051
:10CB10002A8B29461A3120462369984770BD0000A8
:10CB200070B50546AC1D20881249C989884220D1BC
:10CB3000208B02281DD100BF00BFA17EE27E120221
:10CB400011430846C107C90F002902D0FDF79AFA20
:10CB50000FE009480068FCF773F80646002E07D07E
:10CB600004488069002803D002488169304688471C
:10CB700000BF70BDA02400200CE301003EB50546B7
:10CB80000C46E088298988420DD108206946087042
:10CB9000A17F6846017220462030019069462846F0
:10CBA000AA6A904700BF3EBD0246002105E0505CE6
:10CBB000002801D001207047491C0629F7D3002026
:10CBC000F9E7000010B504461C216143124A891898
:10CBD000084611300621FBF716FB1C2161430E4A63
:10CBE00088181021FBF70FFBFF211C2060430A4A25
:10CBF000801801741C206043801881760021C9438D
:10CC00001C20604380180183204601F059FA00205F
:10CC1000A100024A505010BDF8240020DC2400205E
:10CC2000F8B505460E46002400BF002E01D00120B5
:10CC300000E000200746002F06D100BF0022114669
:10CC40001046FBF701FF00BF00BF00BF002D01D061
:10CC5000012000E000200746002F06D100BF00227F
:10CC600011461046FBF7F0FE00BF00BF32782046A9
:10CC7000611CCCB22A542919708801F013FA0019EA
:10CC8000C4B22919B08801F00DFA0019C4B22919EB
:10CC9000F08801F007FA0019C4B200BF072C01D1D7
:10CCA000012000E000200746002F06D100BF00222F
:10CCB00011461046FBF7C8FE00BF00BFF8BD70B5B7
:10CCC00048DF044600BF2546002D06D000BF0022E5
:10CCD00011462846FBF7B8FE00BF00BF70BD00003C
:10CCE000014600BF0848006804221040002801D116
:10CCF0000820704700BF002901D10E20F9E7034842
:10CD0000407808600020F4E7E02000208C26002016
:10CD10003CB5034600BF2548006804242040002895
:10CD200001D108203CBD00BF002B01D10E20F9E746
:10CD3000002A01D10E20F5E71868002806D10C243E
:10CD4000186860431A4C2058002801D10720E9E7F1
:10CD50005C68186801940090019C0C251868684371
:10CD6000134D401900894843201801900C24009865
:10CD700060432C46001940890C25009C6C430C4DE7
:10CD80006419248960430C25009C6C43084D641988
:10CD900064680019019CA04201D80720C2E7019CE9
:10CDA0000098546010600020BCE70000E0200020E4
:10CDB00058270020FEB504460D4600BF41480068D4
:10CDC00004210840002801D10820FEBD00BF002C2E
:10CDD00001D10E20F9E72068002806D10C21206837
:10CDE000484339490858002801D10720EDE70C21B4
:10CDF000206848433449401840890C222168514337
:10CE0000314A8918098948430C22216851432E4A26
:10CE10008918496840186168884201D80720D4E71A
:10CE20006068FFF7F9F9002801D11020CDE70C2345
:10CE300020685843244BC01862684068101A00905C
:10CE40000C22206850431A46801801890098FBF78D
:10CE500097F9002901D00720B7E70C22206850433A
:10CE6000194A801801892846FBF7A0F9002901D149
:10CE7000002D01D10720A8E70C2120684843124962
:10CE8000401806890C22216851430F4A89184989A4
:10CE90004E43606847190C212068484311464018EA
:10CEA0004068801901900198874201D907208CE7DA
:10CEB00000202B460246214600900320FCF786FF07
:10CEC00083E70000E02000205827002070B50848C4
:10CED0004469601C002807D000F00CF8054629467C
:10CEE0002046FBF74DF970BD012000074069FAE7C5
:10CEF0000010001001200007006980B27047000098
:10CF000010B5FCF7A5FF002017490880FFF7DEFFEA
:10CF1000841EFFF7EFFF44431448046000201449C7
:10CF2000086000BF0DE000220C214143114B5A5014
:10CF30000C214143C9180A810C214143C9184A8177
:10CF4000401C0028EFD000200B4908700B490860F6
:10CF50000B4908600B490860094800680421084330
:10CF600007490860002010BDBC200020C020002020
:10CF7000D020002058270020C4200020D4200020EA
:10CF8000E0200020D8200020FFB581B00C461546D7
:10CF90001E4600BF3948006804210840002802D11D
:10CFA000082005B0F0BD00BF002C01D10E20F8E72D
:10CFB0000198002801D10E20F3E72068002806D14F
:10CFC0000C21206848432E490858002801D1072029
:10CFD000E7E70C21206848432949401840890C2282
:10CFE00021685143264A8918098948430C2221683F
:10CFF0005143234A8918496840186168884201D81A
:10D000000720CEE7002D07D00C21206848431C499B
:10D0100040180089A84201DA0720C2E7A9190C22AA
:10D0200020685043164A80180089814201DD07209C
:10D03000B7E70198FFF7F0F8002809D03046FFF76E
:10D04000EBF8002804D06068FFF7E6F8002801D16B
:10D050001020A6E7606881192A460198FBF7BAF804
:10D0600000950C212068484305490F5800220221F1
:10D070002046019BB847002093E70000E0200020F5
:10D0800058270020F8B504460D4600BF4148006807
:10D0900004210840002801D10820F8BD00BF002C61
:10D0A00001D10E20F9E7002D01D10E20F5E720680F
:10D0B000002801D10E20F0E7FFF71CFFA18888426D
:10D0C00002DBA088102801DA0720E6E7E0880028C4
:10D0D0000DD0FFF7FBFE471EFFF70CFF4743E0882C
:10D0E000A18848432C4909684018874201D207208B
:10D0F000D3E720798007800F002801D00720CCE7F4
:10D1000026480088012801D10420C6E7234800886A
:10D110002860214800686860204800880C2250433D
:10D120001F4A8018696841601C4800880C225043DF
:10D130001B4A21681150A188184800880C225043CE
:10D14000174A80180181E188144800880C22504356
:10D15000134A80184181FFF7CDFE0090FFF7CAFE09
:10D16000A188E28851434018471E38460099FBF7D2
:10D170001DF80646FFF7BEFE7043074909684018D0
:10D180000549086005480088401C044908800020C3
:10D1900083E70000E0200020C0200020BC20002009
:10D1A00058270020F8B504460E4615461F4600BF16
:10D1B0003248006804210840002801D10820F8BD49
:10D1C00000BF002E01D10E20F9E7002C01D10E2066
:10D1D000F5E72068002806D10C212068484328493B
:10D1E0000858002801D10720E9E70C2120684843AE
:10D1F0002349401840890C2221685143204A89184C
:10D20000098948430C22216851431D4A89184968FD
:10D2100040186168884201D80720D0E7002D07D068
:10D220000C2120684843164940180089A84201DAB9
:10D230000720C4E7E9190C2220685043104A8018DF
:10D240000089814201DD0720B9E73046FEF7E4FF9F
:10D25000002809D03846FEF7DFFF002804D06068B8
:10D26000FEF7DAFF002801D11020A8E72B4632464E
:10D27000214601200097FCF7A9FDA0E7E02000204F
:10D280005827002010B504460F480078002819D010
:10D290000D480078042815D0022C02D0032C0FD1A1
:10D2A00002E0FEF70DFC0CE0084800680821084089
:10D2B000002802D1FEF7E4FB01E0FEF701FC00E0EC
:10D2C00000BF00BF10BD0000C4200020E0200020EF
:10D2D000F8B504460E4615461F4600BF32480068A2
:10D2E00004210840002801D10820F8BD00BF002E0D
:10D2F00001D10E20F9E7002C01D10E20F5E72068BE
:10D30000002806D10C2120684843284908580028E5
:10D3100001D10720E9E70C21206848432349401840
:10D3200040890C2221685143204A891809894843C1
:10D330000C22216851431D4A8918496840186168C8
:10D34000884201D80720D0E7002D07D00C212068A3
:10D350004843164940180089A84201DA0720C4E76B
:10D36000E9190C2220685043104A80180089814234
:10D3700001DD0720B9E73046FEF74EFF002809D04F
:10D380003846FEF749FF002804D06068FEF744FFE6
:10D39000002801D11020A8E72B4632462146042060
:10D3A0000097FCF713FDA0E7E0200020582700209D
:10D3B00070B5164800881649884210D013211348CA
:10D3C000008876DF044600BF2546002D06D000BF4A
:10D3D000002211462846FBF737FB00BF01E0FBF7B0
:10D3E000CDFAFCF769F8044600BF2546002D06D0AB
:10D3F00000BF002211462846FBF726FB00BF00BFF6
:10D40000FF20F530FFF752F970BD0000002000202A
:10D41000FFFF00000149086070470000401501400F
:10D4200001484068704700000015014010B50446EF
:10D430000348846003211120FBF73AF810BD000077
:10D440000015014010B5012000040A49486009494F
:10D45000403948601120FBF70DF81120FBF714F854
:10D460000120054908602F20FAF744FE01200349F6
:10D47000087010BD4013014000100140042100203D
:10D4800010B51120012181400E4A116000BF01201A
:10D4900000040D4988600C494039886001200B491F
:10D4A00048602F20FAF726FE0120084988600020F6
:10D4B000074908602F20FAF71DFE00200549087073
:10D4C00010BD000080E100E0401301400010014069
:10D4D000F02000200421002010B5FF2109310A4866
:10D4E000FFF76FF900BF084805210902401880695D
:10D4F000C0B20649C968054A127D88540348007DB8
:10D50000401C0249087510BD002000407426002010
:10D510001FB5044601206946087068460472064833
:10D52000C068019000200449C87408460168426838
:10D53000684690471FBD00007426002030B50446A1
:10D540001088C01C984201D90C2030BD02201588DB
:10D5500048551088401C10801120158848551088A7
:10D56000401C108010880C541088401C1080002033
:10D57000EBE7FEB507460E461446B86A002801D10F
:10D580000720FEBD0020019037E0B96A0C22019807
:10D5900050430D18A888801C00900098FE2801D9DF
:10D5A0000C20EEE70098401C218870542088401C15
:10D5B00020801620218870542088401C20802288DA
:10D5C0009119288800F065FD218840182080A888DE
:10D5D00000280EDDA868002801D10720D1E7AA881D
:10D5E00023889819A968FAF7F5FD2088A9884018BA
:10D5F00020800198401CC0B201902C20C15D019890
:10D600008142C2DC0020BCE730B595B0402105A8BE
:10D61000FAF7F9FD36A105A8FCF74EF900BF10A8EE
:10D62000007C01090901491C10A80174007CF0214B
:10D630008843103010A9087400BF00BF14A84078B8
:10D640000009000114A9487014A84078F02188430B
:10D6500014A9487000BF05A8FCF738F8044600BFBD
:10D660002546002D06D000BF002211462846FBF7B4
:10D67000EBF900BF00BF002004902048049004A9EB
:10D680001F48FBF749FE044600BF2546002D06D083
:10D6900000BF002211462846FBF7D6F900BF00BFA5
:10D6A0000020019002900390164802900020039001
:10D6B0001448029001206946888001A91248FBF7AE
:10D6C00039FF044600BF2546002D06D000BF0022CA
:10D6D00011462846FBF7B8F900BF00BF0B48FDF71D
:10D6E00009F80B480078FCF745FF15B030BD000085
:10D6F0004D616B6572436869707300000DC801006D
:10D7000048210020A1A501005C210020B1D3010027
:10D710000220002070B53CDF044600BF2546002DE6
:10D7200006D000BF002211462846FBF78DF900BF46
:10D7300000BF70BD10B504460248047000F0B6F892
:10D7400010BD0000C420002070B506460C461546EA
:10D7500029462046C046C04670BD0000014600294B
:10D7600001D10E207047024801600020FAE7000056
:10D7700020210020FFB581B00C4616461F46002C24
:10D7800002D1072005B0F0BD20468107890F00298E
:10D7900001D1012100E00021002901D10720F1E79A
:10D7A000094804600948068009480760094901984A
:10D7B00010DF0546002D01D02846E3E70120064989
:10D7C000087016202EDFDDE7182100201C21002024
:10D7D0001021002049D70100142100200146002912
:10D7E00001D10E207047024801600020FAE70000D6
:10D7F000242100200146C878002801D00720704766
:10D800000020FCE710B502480068FEF771F910BD72
:10D81000D0200020F8B521480068400840001F498A
:10D8200008601F480078142148431D49091D441809
:10D83000E568FFF75FFB014600902846FAF7A0FC79
:10D84000064618480660FFF755FB009061884919A5
:10D85000481E0099FAF794FC0746BE4206D10F48CD
:10D860000068022108430D49086005E00B48006884
:10D8700002218843094908600B480068002809D143
:10D880000648006802210840002803D1022000F069
:10D8900055F902E0002000F051F9F8BDE020002029
:10D8A0008C260020D0200020C820002010B50D4874
:10D8B0000078002806D0012807D0022808D00328C5
:10D8C0000CD108E000F018F809E000F067F806E075
:10D8D000FFF7A0FF03E0FFF795FF00E000BF00BFE8
:10D8E00010BD0000C420002010B502480068FEF7FB
:10D8F000FFF810BDD020002010B5002003490860BB
:10D9000003490860FCF73AFA10BD0000D42000205B
:10D91000D820002070B5FFF7D9FA461EFFF7EAFAC3
:10D9200046433446FFF7E6FA05490968491E48436D
:10D9300005460448214602682846FEF7E1F870BD16
:10D94000D0200020C8200020F8B51248007814210B
:10D9500048431049091D4418E568FFF7CBFA06460D
:10D9600061884919A28888183146FAF709FC0091A4
:10D97000FFF7ACFA471EFFF7BDFA474300983E1881
:10D9800061884919A288881803490A683146FEF758
:10D99000B7F8F8BD8C260020CC20002010B500F090
:10D9A00033F810BDF8B5FFF7A5FA0646FFF78EFA73
:10D9B000471EFFF79FFA47433D4631462846FAF790
:10D9C000DFFB0446FEF794F8F8BD0000F8B5FFF75A
:10D9D00091FA8408FFF78EFA08490968484305461A
:10D9E000FFF774FA471EFFF785FA47433E46224683
:10D9F00029463046FEF784F8F8BD0000D02000200C
:10DA000010B50446002010BD70B5164800781421EA
:10DA100048431449091D4418FFF76CFA618888428D
:10DA200014DAFFF767FA61880D1AFFF763FA8608C0
:10DA3000A388E268D2185019226951193246FEF7BC
:10DA40005FF8FFF757FA084908600AE0A588E3681D
:10DA5000581963889A082169FEF752F860880249CC
:10DA6000086070BD8C260020D820002010B5012051
:10DA7000FFF760FE10BD000010B50F4800680821D8
:10DA80000840002814D10D480078142148430B4960
:10DA9000091D441860880A490988401A6080608816
:10DAA000002802D1FCF7E4F901E0FFF7ADFF01E047
:10DAB000FEF746FD10BD0000E02000208C2600206F
:10DAC000D820002010B5064800680821084000282A
:10DAD00003D1012000F032F801E000F013F810BD8E
